{
  "_format": "hh-sol-artifact-1",
  "contractName": "Iofy",
  "sourceName": "contracts/Iofy.sol",
  "abi": [
    {
      "inputs": [
        {
          "internalType": "address",
          "name": "_token",
          "type": "address"
        },
        {
          "internalType": "uint256",
          "name": "fee",
          "type": "uint256"
        }
      ],
      "stateMutability": "nonpayable",
      "type": "constructor"
    },
    {
      "inputs": [],
      "name": "ID_DUPLICATED",
      "type": "error"
    },
    {
      "inputs": [],
      "name": "INACTIVE_DEVICE",
      "type": "error"
    },
    {
      "inputs": [],
      "name": "INSUFFICIENT_BALANCE",
      "type": "error"
    },
    {
      "inputs": [],
      "name": "INSUFFICIENT_CONTRACT_BALANCE",
      "type": "error"
    },
    {
      "inputs": [],
      "name": "UNAUTHORIZED",
      "type": "error"
    },
    {
      "inputs": [],
      "name": "ZERO_ADDRESS",
      "type": "error"
    },
    {
      "inputs": [],
      "name": "ZERO_COST",
      "type": "error"
    },
    {
      "anonymous": false,
      "inputs": [
        {
          "indexed": true,
          "internalType": "address",
          "name": "iotDeviceOwner",
          "type": "address"
        },
        {
          "indexed": true,
          "internalType": "uint256",
          "name": "id",
          "type": "uint256"
        },
        {
          "indexed": false,
          "internalType": "uint256",
          "name": "costPerHour",
          "type": "uint256"
        },
        {
          "indexed": true,
          "internalType": "string",
          "name": "cid",
          "type": "string"
        }
      ],
      "name": "CreateIotDevice",
      "type": "event"
    },
    {
      "anonymous": false,
      "inputs": [
        {
          "indexed": true,
          "internalType": "address",
          "name": "iotDeviceOwner",
          "type": "address"
        },
        {
          "indexed": true,
          "internalType": "uint256",
          "name": "iotDeviceId",
          "type": "uint256"
        },
        {
          "indexed": false,
          "internalType": "uint256",
          "name": "costPerHour",
          "type": "uint256"
        },
        {
          "indexed": false,
          "internalType": "bool",
          "name": "isActive",
          "type": "bool"
        }
      ],
      "name": "ModifyIotDevice",
      "type": "event"
    },
    {
      "anonymous": false,
      "inputs": [
        {
          "indexed": true,
          "internalType": "address",
          "name": "previousOwner",
          "type": "address"
        },
        {
          "indexed": true,
          "internalType": "address",
          "name": "newOwner",
          "type": "address"
        }
      ],
      "name": "OwnershipTransferred",
      "type": "event"
    },
    {
      "anonymous": false,
      "inputs": [
        {
          "indexed": true,
          "internalType": "address",
          "name": "maker",
          "type": "address"
        },
        {
          "indexed": true,
          "internalType": "address",
          "name": "user",
          "type": "address"
        },
        {
          "indexed": true,
          "internalType": "uint256",
          "name": "iotDeviceId",
          "type": "uint256"
        },
        {
          "indexed": false,
          "internalType": "uint256",
          "name": "id",
          "type": "uint256"
        },
        {
          "indexed": false,
          "internalType": "uint256",
          "name": "val",
          "type": "uint256"
        },
        {
          "indexed": false,
          "internalType": "uint256",
          "name": "fee",
          "type": "uint256"
        },
        {
          "indexed": false,
          "internalType": "uint256",
          "name": "start",
          "type": "uint256"
        },
        {
          "indexed": false,
          "internalType": "uint256",
          "name": "end",
          "type": "uint256"
        }
      ],
      "name": "RentIot",
      "type": "event"
    },
    {
      "anonymous": false,
      "inputs": [
        {
          "indexed": true,
          "internalType": "address",
          "name": "admin",
          "type": "address"
        },
        {
          "indexed": false,
          "internalType": "uint256",
          "name": "fee",
          "type": "uint256"
        }
      ],
      "name": "SetFee",
      "type": "event"
    },
    {
      "anonymous": false,
      "inputs": [
        {
          "indexed": true,
          "internalType": "address",
          "name": "admin",
          "type": "address"
        },
        {
          "indexed": true,
          "internalType": "address",
          "name": "recipient",
          "type": "address"
        },
        {
          "indexed": false,
          "internalType": "uint256",
          "name": "fee",
          "type": "uint256"
        }
      ],
      "name": "TakeFee",
      "type": "event"
    },
    {
      "anonymous": false,
      "inputs": [
        {
          "indexed": true,
          "internalType": "address",
          "name": "iotDeviceOwner",
          "type": "address"
        },
        {
          "indexed": true,
          "internalType": "address",
          "name": "recipient",
          "type": "address"
        },
        {
          "indexed": false,
          "internalType": "uint256",
          "name": "amount",
          "type": "uint256"
        }
      ],
      "name": "Withdraw",
      "type": "event"
    },
    {
      "inputs": [],
      "name": "_orderID",
      "outputs": [
        {
          "internalType": "uint256",
          "name": "_value",
          "type": "uint256"
        }
      ],
      "stateMutability": "view",
      "type": "function"
    },
    {
      "inputs": [
        {
          "internalType": "string",
          "name": "cid",
          "type": "string"
        },
        {
          "internalType": "uint256",
          "name": "iotDeviceId",
          "type": "uint256"
        },
        {
          "internalType": "uint256",
          "name": "costPerHour",
          "type": "uint256"
        }
      ],
      "name": "createIoTDevice",
      "outputs": [],
      "stateMutability": "nonpayable",
      "type": "function"
    },
    {
      "inputs": [],
      "name": "getAvailableFees",
      "outputs": [
        {
          "internalType": "uint256",
          "name": "available",
          "type": "uint256"
        }
      ],
      "stateMutability": "view",
      "type": "function"
    },
    {
      "inputs": [],
      "name": "getFee",
      "outputs": [
        {
          "internalType": "uint256",
          "name": "fee",
          "type": "uint256"
        }
      ],
      "stateMutability": "view",
      "type": "function"
    },
    {
      "inputs": [
        {
          "internalType": "uint256",
          "name": "ioTDeviceId",
          "type": "uint256"
        }
      ],
      "name": "getIoTDevice",
      "outputs": [
        {
          "components": [
            {
              "internalType": "uint256",
              "name": "iotDeviceId",
              "type": "uint256"
            },
            {
              "internalType": "uint256",
              "name": "costPerHour",
              "type": "uint256"
            },
            {
              "internalType": "uint256",
              "name": "totalRaised",
              "type": "uint256"
            },
            {
              "internalType": "uint256",
              "name": "txCount",
              "type": "uint256"
            },
            {
              "internalType": "string",
              "name": "cid",
              "type": "string"
            },
            {
              "internalType": "address",
              "name": "owner",
              "type": "address"
            },
            {
              "internalType": "bool",
              "name": "isActive",
              "type": "bool"
            }
          ],
          "internalType": "struct IoTDevice",
          "name": "",
          "type": "tuple"
        }
      ],
      "stateMutability": "view",
      "type": "function"
    },
    {
      "inputs": [
        {
          "internalType": "address",
          "name": "ownerAddr",
          "type": "address"
        }
      ],
      "name": "getIoTOwnerInfo",
      "outputs": [
        {
          "components": [
            {
              "internalType": "uint256",
              "name": "totalRaised",
              "type": "uint256"
            },
            {
              "internalType": "uint256",
              "name": "totalWithdrawal",
              "type": "uint256"
            },
            {
              "internalType": "uint256[]",
              "name": "ioTDeviceIds",
              "type": "uint256[]"
            }
          ],
          "internalType": "struct IoTDeviceOwner",
          "name": "",
          "type": "tuple"
        }
      ],
      "stateMutability": "view",
      "type": "function"
    },
    {
      "inputs": [],
      "name": "getLastestOrderId",
      "outputs": [
        {
          "internalType": "uint256",
          "name": "id",
          "type": "uint256"
        }
      ],
      "stateMutability": "view",
      "type": "function"
    },
    {
      "inputs": [
        {
          "internalType": "uint256",
          "name": "orderId",
          "type": "uint256"
        }
      ],
      "name": "getOrderInfo",
      "outputs": [
        {
          "components": [
            {
              "internalType": "uint256",
              "name": "ioTDeviceId",
              "type": "uint256"
            },
            {
              "internalType": "uint256",
              "name": "amountPaid",
              "type": "uint256"
            },
            {
              "internalType": "uint256",
              "name": "startTimestamp",
              "type": "uint256"
            },
            {
              "internalType": "uint256",
              "name": "endTimestamp",
              "type": "uint256"
            },
            {
              "internalType": "address",
              "name": "user",
              "type": "address"
            }
          ],
          "internalType": "struct Order",
          "name": "",
          "type": "tuple"
        }
      ],
      "stateMutability": "view",
      "type": "function"
    },
    {
      "inputs": [],
      "name": "getTotalRaisedInDeals",
      "outputs": [
        {
          "internalType": "uint256",
          "name": "total",
          "type": "uint256"
        }
      ],
      "stateMutability": "view",
      "type": "function"
    },
    {
      "inputs": [
        {
          "internalType": "address",
          "name": "userAddr",
          "type": "address"
        }
      ],
      "name": "getUserInfo",
      "outputs": [
        {
          "components": [
            {
              "internalType": "uint256",
              "name": "spent",
              "type": "uint256"
            },
            {
              "components": [
                {
                  "internalType": "uint256",
                  "name": "ioTDeviceId",
                  "type": "uint256"
                },
                {
                  "internalType": "uint256",
                  "name": "amountPaid",
                  "type": "uint256"
                },
                {
                  "internalType": "uint256",
                  "name": "startTimestamp",
                  "type": "uint256"
                },
                {
                  "internalType": "uint256",
                  "name": "endTimestamp",
                  "type": "uint256"
                },
                {
                  "internalType": "address",
                  "name": "user",
                  "type": "address"
                }
              ],
              "internalType": "struct Order[]",
              "name": "orders",
              "type": "tuple[]"
            }
          ],
          "internalType": "struct User",
          "name": "",
          "type": "tuple"
        }
      ],
      "stateMutability": "view",
      "type": "function"
    },
    {
      "inputs": [
        {
          "internalType": "uint256",
          "name": "iotDeviceId",
          "type": "uint256"
        },
        {
          "internalType": "uint256",
          "name": "costPerHour",
          "type": "uint256"
        },
        {
          "internalType": "bool",
          "name": "isActive",
          "type": "bool"
        }
      ],
      "name": "modifyIoTDevice",
      "outputs": [],
      "stateMutability": "nonpayable",
      "type": "function"
    },
    {
      "inputs": [],
      "name": "owner",
      "outputs": [
        {
          "internalType": "address",
          "name": "",
          "type": "address"
        }
      ],
      "stateMutability": "view",
      "type": "function"
    },
    {
      "inputs": [],
      "name": "renounceOwnership",
      "outputs": [],
      "stateMutability": "nonpayable",
      "type": "function"
    },
    {
      "inputs": [
        {
          "internalType": "uint256",
          "name": "iotDeviceId",
          "type": "uint256"
        },
        {
          "internalType": "address",
          "name": "user",
          "type": "address"
        },
        {
          "internalType": "uint256",
          "name": "amount",
          "type": "uint256"
        },
        {
          "internalType": "uint256",
          "name": "startsIn",
          "type": "uint256"
        }
      ],
      "name": "rentIoT",
      "outputs": [
        {
          "internalType": "uint256",
          "name": "start",
          "type": "uint256"
        },
        {
          "internalType": "uint256",
          "name": "end",
          "type": "uint256"
        }
      ],
      "stateMutability": "nonpayable",
      "type": "function"
    },
    {
      "inputs": [
        {
          "internalType": "uint256",
          "name": "fee",
          "type": "uint256"
        }
      ],
      "name": "setFee",
      "outputs": [],
      "stateMutability": "nonpayable",
      "type": "function"
    },
    {
      "inputs": [
        {
          "internalType": "address",
          "name": "recipient",
          "type": "address"
        },
        {
          "internalType": "uint256",
          "name": "amount",
          "type": "uint256"
        }
      ],
      "name": "takeFee",
      "outputs": [],
      "stateMutability": "nonpayable",
      "type": "function"
    },
    {
      "inputs": [],
      "name": "token",
      "outputs": [
        {
          "internalType": "contract IERC20",
          "name": "",
          "type": "address"
        }
      ],
      "stateMutability": "view",
      "type": "function"
    },
    {
      "inputs": [
        {
          "internalType": "address",
          "name": "newOwner",
          "type": "address"
        }
      ],
      "name": "transferOwnership",
      "outputs": [],
      "stateMutability": "nonpayable",
      "type": "function"
    },
    {
      "inputs": [
        {
          "internalType": "address",
          "name": "recipient",
          "type": "address"
        },
        {
          "internalType": "uint256",
          "name": "amount",
          "type": "uint256"
        }
      ],
      "name": "withdraw",
      "outputs": [],
      "stateMutability": "nonpayable",
      "type": "function"
    }
  ],
  "bytecode": "0x60806040523480156200001157600080fd5b50604051620034423803806200344283398181016040528101906200003791906200027c565b620000576200004b620000b160201b60201c565b620000b960201b60201c565b81600160006101000a81548173ffffffffffffffffffffffffffffffffffffffff021916908373ffffffffffffffffffffffffffffffffffffffff160217905550620000a9816200017d60201b60201c565b5050620002f1565b600033905090565b60008060009054906101000a900473ffffffffffffffffffffffffffffffffffffffff169050816000806101000a81548173ffffffffffffffffffffffffffffffffffffffff021916908373ffffffffffffffffffffffffffffffffffffffff1602179055508173ffffffffffffffffffffffffffffffffffffffff168173ffffffffffffffffffffffffffffffffffffffff167f8be0079c531659141344cd1fd0a4f28419497f9722a3daafe3b4186f6b6457e060405160405180910390a35050565b806003819055503373ffffffffffffffffffffffffffffffffffffffff167f01fe2943baee27f47add82886c2200f910c749c461c9b63c5fe83901a53bdb4982604051620001cc9190620002d4565b60405180910390a250565b600080fd5b600073ffffffffffffffffffffffffffffffffffffffff82169050919050565b60006200020982620001dc565b9050919050565b6200021b81620001fc565b81146200022757600080fd5b50565b6000815190506200023b8162000210565b92915050565b6000819050919050565b620002568162000241565b81146200026257600080fd5b50565b60008151905062000276816200024b565b92915050565b60008060408385031215620002965762000295620001d7565b5b6000620002a6858286016200022a565b9250506020620002b98582860162000265565b9150509250929050565b620002ce8162000241565b82525050565b6000602082019050620002eb6000830184620002c3565b92915050565b61314180620003016000396000f3fe608060405234801561001057600080fd5b50600436106101215760003560e01c8063912bab7b116100ad578063efd8c80811610071578063efd8c8081461030b578063f2fde38b14610327578063f3fef3a314610343578063fb5eac071461035f578063fc0c546a1461037d57610121565b8063912bab7b14610240578063b7bd065714610271578063ced72f871461028d578063d311636b146102ab578063d7362e58146102db57610121565b80635342389e116100f45780635342389e146101ae5780636386c1c7146101cc57806369fe0e2d146101fc578063715018a6146102185780638da5cb5b1461022257610121565b80631d759aae146101265780632215c08b146101425780632e6c74b01461017257806340806f7c14610190575b600080fd5b610140600480360381019061013b9190611fcf565b61039b565b005b61015c6004803603810190610157919061200f565b610468565b60405161016991906121a1565b60405180910390f35b61017a6105c0565b60405161018791906121d2565b60405180910390f35b6101986105d1565b6040516101a591906121d2565b60405180910390f35b6101b66105db565b6040516101c391906121d2565b60405180910390f35b6101e660048036038101906101e191906121ed565b6105e7565b6040516101f3919061236e565b60405180910390f35b6102166004803603810190610211919061200f565b610727565b005b61022061073b565b005b61022a61074f565b604051610237919061239f565b60405180910390f35b61025a600480360381019061025591906123ba565b610778565b604051610268929190612421565b60405180910390f35b61028b6004803603810190610286919061257f565b610cfb565b005b6102956110cf565b6040516102a291906121d2565b60405180910390f35b6102c560048036038101906102c0919061200f565b6110d9565b6040516102d29190612656565b60405180910390f35b6102f560048036038101906102f091906121ed565b611184565b6040516103029190612770565b60405180910390f35b610325600480360381019061032091906127be565b611249565b005b610341600480360381019061033c91906121ed565b6114cd565b005b61035d60048036038101906103589190611fcf565b611550565b005b610367611727565b60405161037491906121d2565b60405180910390f35b610385611731565b6040516103929190612870565b60405180910390f35b6103a3611757565b60006005549050818110156103e4576040517f50b1f35600000000000000000000000000000000000000000000000000000000815260040160405180910390fd5b816005600082825403925050819055506103fe83836117d5565b8273ffffffffffffffffffffffffffffffffffffffff163373ffffffffffffffffffffffffffffffffffffffff167f868a05d99b628397acaa119a0429a5e62b0b288c704f92d4759ea3b51c1898258460405161045b91906121d2565b60405180910390a3505050565b610470611e52565b600660008381526020019081526020016000206040518060e0016040529081600082015481526020016001820154815260200160028201548152602001600382015481526020016004820180546104c6906128ba565b80601f01602080910402602001604051908101604052809291908181526020018280546104f2906128ba565b801561053f5780601f106105145761010080835404028352916020019161053f565b820191906000526020600020905b81548152906001019060200180831161052257829003601f168201915b505050505081526020016005820160009054906101000a900473ffffffffffffffffffffffffffffffffffffffff1673ffffffffffffffffffffffffffffffffffffffff1673ffffffffffffffffffffffffffffffffffffffff1681526020016005820160149054906101000a900460ff1615151515815250509050919050565b60006105cc6002611967565b905090565b6000600554905090565b60028060000154905081565b6105ef611ea7565b600960008373ffffffffffffffffffffffffffffffffffffffff1673ffffffffffffffffffffffffffffffffffffffff1681526020019081526020016000206040518060400160405290816000820154815260200160018201805480602002602001604051908101604052809291908181526020016000905b8282101561071857838290600052602060002090600502016040518060a0016040529081600082015481526020016001820154815260200160028201548152602001600382015481526020016004820160009054906101000a900473ffffffffffffffffffffffffffffffffffffffff1673ffffffffffffffffffffffffffffffffffffffff1673ffffffffffffffffffffffffffffffffffffffff168152505081526020019060010190610668565b50505050815250509050919050565b61072f611757565b61073881611975565b50565b610743611757565b61074d60006119cd565b565b60008060009054906101000a900473ffffffffffffffffffffffffffffffffffffffff16905090565b6000806000600660008881526020019081526020016000206040518060e0016040529081600082015481526020016001820154815260200160028201548152602001600382015481526020016004820180546107d3906128ba565b80601f01602080910402602001604051908101604052809291908181526020018280546107ff906128ba565b801561084c5780601f106108215761010080835404028352916020019161084c565b820191906000526020600020905b81548152906001019060200180831161082f57829003601f168201915b505050505081526020016005820160009054906101000a900473ffffffffffffffffffffffffffffffffffffffff1673ffffffffffffffffffffffffffffffffffffffff1673ffffffffffffffffffffffffffffffffffffffff1681526020016005820160149054906101000a900460ff16151515158152505090508060c00151610903576040517ffb37fda600000000000000000000000000000000000000000000000000000000815260040160405180910390fd5b6000850361093d576040517fa2ee6b8200000000000000000000000000000000000000000000000000000000815260040160405180910390fd5b61098c333087600160009054906101000a900473ffffffffffffffffffffffffffffffffffffffff1673ffffffffffffffffffffffffffffffffffffffff16611a91909392919063ffffffff16565b60006006600089815260200190815260200160002090506000600860008460a0015173ffffffffffffffffffffffffffffffffffffffff1673ffffffffffffffffffffffffffffffffffffffff16815260200190815260200160002090506000600960008a73ffffffffffffffffffffffffffffffffffffffff1673ffffffffffffffffffffffffffffffffffffffff168152602001908152602001600020905060008a905060008a9050600060035490508a84600001600082825401925050819055506000612710828d0281610a6657610a656128eb565b5b0490506000818d03905080600460008282540192505081905550816005600082825401925050819055508087600001600082825401925050819055508088600201600082825401925050819055508760030160008154809291906001019190505550428c019a508a8960200151610e108f0281610ae657610ae56128eb565b5b04019950505060008060008b8b8f92509250925060006040518060a001604052808881526020018381526020018581526020018481526020018773ffffffffffffffffffffffffffffffffffffffff168152509050876001018190806001815401808255809150506001900390600052602060002090600502016000909190919091506000820151816000015560208201518160010155604082015181600201556060820151816003015560808201518160040160006101000a81548173ffffffffffffffffffffffffffffffffffffffff021916908373ffffffffffffffffffffffffffffffffffffffff1602179055505050610be46002611b1a565b6000610bf06002611967565b905081600760008381526020019081526020016000206000820151816000015560208201518160010155604082015181600201556060820151816003015560808201518160040160006101000a81548173ffffffffffffffffffffffffffffffffffffffff021916908373ffffffffffffffffffffffffffffffffffffffff160217905550905050878773ffffffffffffffffffffffffffffffffffffffff163373ffffffffffffffffffffffffffffffffffffffff167f4e1cca2dd667ea0fa1397026550a63321384d154753acafe278419fd81c1d3df84878b8b8b604051610cde95949392919061291a565b60405180910390a450505050505050505050505094509492505050565b6000600660008481526020019081526020016000206040518060e001604052908160008201548152602001600182015481526020016002820154815260200160038201548152602001600482018054610d53906128ba565b80601f0160208091040260200160405190810160405280929190818152602001828054610d7f906128ba565b8015610dcc5780601f10610da157610100808354040283529160200191610dcc565b820191906000526020600020905b815481529060010190602001808311610daf57829003601f168201915b505050505081526020016005820160009054906101000a900473ffffffffffffffffffffffffffffffffffffffff1673ffffffffffffffffffffffffffffffffffffffff1673ffffffffffffffffffffffffffffffffffffffff1681526020016005820160149054906101000a900460ff16151515158152505090508060a0015173ffffffffffffffffffffffffffffffffffffffff16600073ffffffffffffffffffffffffffffffffffffffff1614610eb2576040517f1ef7e02b00000000000000000000000000000000000000000000000000000000815260040160405180910390fd5b60008203610eec576040517fa2ee6b8200000000000000000000000000000000000000000000000000000000815260040160405180910390fd5b60006040518060e0016040528085815260200184815260200160008152602001600081526020018681526020013373ffffffffffffffffffffffffffffffffffffffff1681526020016001151581525090508060066000868152602001908152602001600020600082015181600001556020820151816001015560408201518160020155606082015181600301556080820151816004019081610f8f9190612b0f565b5060a08201518160050160006101000a81548173ffffffffffffffffffffffffffffffffffffffff021916908373ffffffffffffffffffffffffffffffffffffffff16021790555060c08201518160050160146101000a81548160ff021916908315150217905550905050600860003373ffffffffffffffffffffffffffffffffffffffff1673ffffffffffffffffffffffffffffffffffffffff168152602001908152602001600020600201849080600181540180825580915050600190039060005260206000200160009091909190915055846040516110719190612c1d565b6040518091039020843373ffffffffffffffffffffffffffffffffffffffff167f16be31cbfa333417bc5ecccfd1df19e013f14d3f4af33afd7b93de240e961efd866040516110c091906121d2565b60405180910390a45050505050565b6000600354905090565b6110e1611ec1565b600760008381526020019081526020016000206040518060a0016040529081600082015481526020016001820154815260200160028201548152602001600382015481526020016004820160009054906101000a900473ffffffffffffffffffffffffffffffffffffffff1673ffffffffffffffffffffffffffffffffffffffff1673ffffffffffffffffffffffffffffffffffffffff16815250509050919050565b61118c611f06565b600860008373ffffffffffffffffffffffffffffffffffffffff1673ffffffffffffffffffffffffffffffffffffffff16815260200190815260200160002060405180606001604052908160008201548152602001600182015481526020016002820180548060200260200160405190810160405280929190818152602001828054801561123957602002820191906000526020600020905b815481526020019060010190808311611225575b5050505050815250509050919050565b6000600660008581526020019081526020016000206040518060e0016040529081600082015481526020016001820154815260200160028201548152602001600382015481526020016004820180546112a1906128ba565b80601f01602080910402602001604051908101604052809291908181526020018280546112cd906128ba565b801561131a5780601f106112ef5761010080835404028352916020019161131a565b820191906000526020600020905b8154815290600101906020018083116112fd57829003601f168201915b505050505081526020016005820160009054906101000a900473ffffffffffffffffffffffffffffffffffffffff1673ffffffffffffffffffffffffffffffffffffffff1673ffffffffffffffffffffffffffffffffffffffff1681526020016005820160149054906101000a900460ff16151515158152505090508060a0015173ffffffffffffffffffffffffffffffffffffffff163373ffffffffffffffffffffffffffffffffffffffff16146113ff576040517f075fd2b100000000000000000000000000000000000000000000000000000000815260040160405180910390fd5b60008303611439576040517fa2ee6b8200000000000000000000000000000000000000000000000000000000815260040160405180910390fd5b6000600660008681526020019081526020016000209050828160050160146101000a81548160ff021916908315150217905550838160010181905550843373ffffffffffffffffffffffffffffffffffffffff167f93a8aa4a2f61a8bad34c7c6732674437214587d7ddf0a3a2eccf5472f3d220e586866040516114be929190612c43565b60405180910390a35050505050565b6114d5611757565b600073ffffffffffffffffffffffffffffffffffffffff168173ffffffffffffffffffffffffffffffffffffffff1603611544576040517f08c379a000000000000000000000000000000000000000000000000000000000815260040161153b90612cef565b60405180910390fd5b61154d816119cd565b50565b6000600860003373ffffffffffffffffffffffffffffffffffffffff1673ffffffffffffffffffffffffffffffffffffffff1681526020019081526020016000206040518060600160405290816000820154815260200160018201548152602001600282018054806020026020016040519081016040528092919081815260200182805480156115ff57602002820191906000526020600020905b8154815260200190600101908083116115eb575b50505050508152505090506000600860003373ffffffffffffffffffffffffffffffffffffffff1673ffffffffffffffffffffffffffffffffffffffff16815260200190815260200160002090506000826020015183600001516116639190612d3e565b90508381101561169f576040517f50b1f35600000000000000000000000000000000000000000000000000000000815260040160405180910390fd5b8382600101600082825401925050819055506116bb85856117d5565b8473ffffffffffffffffffffffffffffffffffffffff163373ffffffffffffffffffffffffffffffffffffffff167f9b1bfa7fa9ee420a16e124f794c35ac9f90472acc99140eb2f6447c714cad8eb8660405161171891906121d2565b60405180910390a35050505050565b6000600454905090565b600160009054906101000a900473ffffffffffffffffffffffffffffffffffffffff1681565b61175f611b30565b73ffffffffffffffffffffffffffffffffffffffff1661177d61074f565b73ffffffffffffffffffffffffffffffffffffffff16146117d3576040517f08c379a00000000000000000000000000000000000000000000000000000000081526004016117ca90612dbe565b60405180910390fd5b565b600073ffffffffffffffffffffffffffffffffffffffff168273ffffffffffffffffffffffffffffffffffffffff160361183b576040517f538ba4f900000000000000000000000000000000000000000000000000000000815260040160405180910390fd5b6000600160009054906101000a900473ffffffffffffffffffffffffffffffffffffffff1673ffffffffffffffffffffffffffffffffffffffff166370a08231306040518263ffffffff1660e01b8152600401611898919061239f565b602060405180830381865afa1580156118b5573d6000803e3d6000fd5b505050506040513d601f19601f820116820180604052508101906118d99190612df3565b905081811015611915576040517f84a0056000000000000000000000000000000000000000000000000000000000815260040160405180910390fd5b6119628383600160009054906101000a900473ffffffffffffffffffffffffffffffffffffffff1673ffffffffffffffffffffffffffffffffffffffff16611b389092919063ffffffff16565b505050565b600081600001549050919050565b806003819055503373ffffffffffffffffffffffffffffffffffffffff167f01fe2943baee27f47add82886c2200f910c749c461c9b63c5fe83901a53bdb49826040516119c291906121d2565b60405180910390a250565b60008060009054906101000a900473ffffffffffffffffffffffffffffffffffffffff169050816000806101000a81548173ffffffffffffffffffffffffffffffffffffffff021916908373ffffffffffffffffffffffffffffffffffffffff1602179055508173ffffffffffffffffffffffffffffffffffffffff168173ffffffffffffffffffffffffffffffffffffffff167f8be0079c531659141344cd1fd0a4f28419497f9722a3daafe3b4186f6b6457e060405160405180910390a35050565b611b14846323b872dd60e01b858585604051602401611ab293929190612e20565b604051602081830303815290604052907bffffffffffffffffffffffffffffffffffffffffffffffffffffffff19166020820180517bffffffffffffffffffffffffffffffffffffffffffffffffffffffff8381831617835250505050611bbe565b50505050565b6001816000016000828254019250508190555050565b600033905090565b611bb98363a9059cbb60e01b8484604051602401611b57929190612e57565b604051602081830303815290604052907bffffffffffffffffffffffffffffffffffffffffffffffffffffffff19166020820180517bffffffffffffffffffffffffffffffffffffffffffffffffffffffff8381831617835250505050611bbe565b505050565b6000611c20826040518060400160405280602081526020017f5361666545524332303a206c6f772d6c6576656c2063616c6c206661696c65648152508573ffffffffffffffffffffffffffffffffffffffff16611c859092919063ffffffff16565b9050600081511115611c805780806020019051810190611c409190612e95565b611c7f576040517f08c379a0000000000000000000000000000000000000000000000000000000008152600401611c7690612f34565b60405180910390fd5b5b505050565b6060611c948484600085611c9d565b90509392505050565b606082471015611ce2576040517f08c379a0000000000000000000000000000000000000000000000000000000008152600401611cd990612fc6565b60405180910390fd5b6000808673ffffffffffffffffffffffffffffffffffffffff168587604051611d0b919061302d565b60006040518083038185875af1925050503d8060008114611d48576040519150601f19603f3d011682016040523d82523d6000602084013e611d4d565b606091505b5091509150611d5e87838387611d6a565b92505050949350505050565b60608315611dcc576000835103611dc457611d8485611ddf565b611dc3576040517f08c379a0000000000000000000000000000000000000000000000000000000008152600401611dba90613090565b60405180910390fd5b5b829050611dd7565b611dd68383611e02565b5b949350505050565b6000808273ffffffffffffffffffffffffffffffffffffffff163b119050919050565b600082511115611e155781518083602001fd5b806040517f08c379a0000000000000000000000000000000000000000000000000000000008152600401611e4991906130e9565b60405180910390fd5b6040518060e001604052806000815260200160008152602001600081526020016000815260200160608152602001600073ffffffffffffffffffffffffffffffffffffffff1681526020016000151581525090565b604051806040016040528060008152602001606081525090565b6040518060a0016040528060008152602001600081526020016000815260200160008152602001600073ffffffffffffffffffffffffffffffffffffffff1681525090565b60405180606001604052806000815260200160008152602001606081525090565b6000604051905090565b600080fd5b600080fd5b600073ffffffffffffffffffffffffffffffffffffffff82169050919050565b6000611f6682611f3b565b9050919050565b611f7681611f5b565b8114611f8157600080fd5b50565b600081359050611f9381611f6d565b92915050565b6000819050919050565b611fac81611f99565b8114611fb757600080fd5b50565b600081359050611fc981611fa3565b92915050565b60008060408385031215611fe657611fe5611f31565b5b6000611ff485828601611f84565b925050602061200585828601611fba565b9150509250929050565b60006020828403121561202557612024611f31565b5b600061203384828501611fba565b91505092915050565b61204581611f99565b82525050565b600081519050919050565b600082825260208201905092915050565b60005b8381101561208557808201518184015260208101905061206a565b60008484015250505050565b6000601f19601f8301169050919050565b60006120ad8261204b565b6120b78185612056565b93506120c7818560208601612067565b6120d081612091565b840191505092915050565b6120e481611f5b565b82525050565b60008115159050919050565b6120ff816120ea565b82525050565b600060e08301600083015161211d600086018261203c565b506020830151612130602086018261203c565b506040830151612143604086018261203c565b506060830151612156606086018261203c565b506080830151848203608086015261216e82826120a2565b91505060a083015161218360a08601826120db565b5060c083015161219660c08601826120f6565b508091505092915050565b600060208201905081810360008301526121bb8184612105565b905092915050565b6121cc81611f99565b82525050565b60006020820190506121e760008301846121c3565b92915050565b60006020828403121561220357612202611f31565b5b600061221184828501611f84565b91505092915050565b600081519050919050565b600082825260208201905092915050565b6000819050602082019050919050565b60a08201600082015161225c600085018261203c565b50602082015161226f602085018261203c565b506040820151612282604085018261203c565b506060820151612295606085018261203c565b5060808201516122a860808501826120db565b50505050565b60006122ba8383612246565b60a08301905092915050565b6000602082019050919050565b60006122de8261221a565b6122e88185612225565b93506122f383612236565b8060005b8381101561232457815161230b88826122ae565b9750612316836122c6565b9250506001810190506122f7565b5085935050505092915050565b6000604083016000830151612349600086018261203c565b506020830151848203602086015261236182826122d3565b9150508091505092915050565b600060208201905081810360008301526123888184612331565b905092915050565b61239981611f5b565b82525050565b60006020820190506123b46000830184612390565b92915050565b600080600080608085870312156123d4576123d3611f31565b5b60006123e287828801611fba565b94505060206123f387828801611f84565b935050604061240487828801611fba565b925050606061241587828801611fba565b91505092959194509250565b600060408201905061243660008301856121c3565b61244360208301846121c3565b9392505050565b600080fd5b600080fd5b7f4e487b7100000000000000000000000000000000000000000000000000000000600052604160045260246000fd5b61248c82612091565b810181811067ffffffffffffffff821117156124ab576124aa612454565b5b80604052505050565b60006124be611f27565b90506124ca8282612483565b919050565b600067ffffffffffffffff8211156124ea576124e9612454565b5b6124f382612091565b9050602081019050919050565b82818337600083830152505050565b600061252261251d846124cf565b6124b4565b90508281526020810184848401111561253e5761253d61244f565b5b612549848285612500565b509392505050565b600082601f8301126125665761256561244a565b5b813561257684826020860161250f565b91505092915050565b60008060006060848603121561259857612597611f31565b5b600084013567ffffffffffffffff8111156125b6576125b5611f36565b5b6125c286828701612551565b93505060206125d386828701611fba565b92505060406125e486828701611fba565b9150509250925092565b60a082016000820151612604600085018261203c565b506020820151612617602085018261203c565b50604082015161262a604085018261203c565b50606082015161263d606085018261203c565b50608082015161265060808501826120db565b50505050565b600060a08201905061266b60008301846125ee565b92915050565b600081519050919050565b600082825260208201905092915050565b6000819050602082019050919050565b60006126a9838361203c565b60208301905092915050565b6000602082019050919050565b60006126cd82612671565b6126d7818561267c565b93506126e28361268d565b8060005b838110156127135781516126fa888261269d565b9750612705836126b5565b9250506001810190506126e6565b5085935050505092915050565b6000606083016000830151612738600086018261203c565b50602083015161274b602086018261203c565b506040830151848203604086015261276382826126c2565b9150508091505092915050565b6000602082019050818103600083015261278a8184612720565b905092915050565b61279b816120ea565b81146127a657600080fd5b50565b6000813590506127b881612792565b92915050565b6000806000606084860312156127d7576127d6611f31565b5b60006127e586828701611fba565b93505060206127f686828701611fba565b9250506040612807868287016127a9565b9150509250925092565b6000819050919050565b600061283661283161282c84611f3b565b612811565b611f3b565b9050919050565b60006128488261281b565b9050919050565b600061285a8261283d565b9050919050565b61286a8161284f565b82525050565b60006020820190506128856000830184612861565b92915050565b7f4e487b7100000000000000000000000000000000000000000000000000000000600052602260045260246000fd5b600060028204905060018216806128d257607f821691505b6020821081036128e5576128e461288b565b5b50919050565b7f4e487b7100000000000000000000000000000000000000000000000000000000600052601260045260246000fd5b600060a08201905061292f60008301886121c3565b61293c60208301876121c3565b61294960408301866121c3565b61295660608301856121c3565b61296360808301846121c3565b9695505050505050565b60008190508160005260206000209050919050565b60006020601f8301049050919050565b600082821b905092915050565b6000600883026129cf7fffffffffffffffffffffffffffffffffffffffffffffffffffffffffffffffff82612992565b6129d98683612992565b95508019841693508086168417925050509392505050565b6000612a0c612a07612a0284611f99565b612811565b611f99565b9050919050565b6000819050919050565b612a26836129f1565b612a3a612a3282612a13565b84845461299f565b825550505050565b600090565b612a4f612a42565b612a5a818484612a1d565b505050565b5b81811015612a7e57612a73600082612a47565b600181019050612a60565b5050565b601f821115612ac357612a948161296d565b612a9d84612982565b81016020851015612aac578190505b612ac0612ab885612982565b830182612a5f565b50505b505050565b600082821c905092915050565b6000612ae660001984600802612ac8565b1980831691505092915050565b6000612aff8383612ad5565b9150826002028217905092915050565b612b188261204b565b67ffffffffffffffff811115612b3157612b30612454565b5b612b3b82546128ba565b612b46828285612a82565b600060209050601f831160018114612b795760008415612b67578287015190505b612b718582612af3565b865550612bd9565b601f198416612b878661296d565b60005b82811015612baf57848901518255600182019150602085019450602081019050612b8a565b86831015612bcc5784890151612bc8601f891682612ad5565b8355505b6001600288020188555050505b505050505050565b600081905092915050565b6000612bf78261204b565b612c018185612be1565b9350612c11818560208601612067565b80840191505092915050565b6000612c298284612bec565b915081905092915050565b612c3d816120ea565b82525050565b6000604082019050612c5860008301856121c3565b612c656020830184612c34565b9392505050565b600082825260208201905092915050565b7f4f776e61626c653a206e6577206f776e657220697320746865207a65726f206160008201527f6464726573730000000000000000000000000000000000000000000000000000602082015250565b6000612cd9602683612c6c565b9150612ce482612c7d565b604082019050919050565b60006020820190508181036000830152612d0881612ccc565b9050919050565b7f4e487b7100000000000000000000000000000000000000000000000000000000600052601160045260246000fd5b6000612d4982611f99565b9150612d5483611f99565b9250828203905081811115612d6c57612d6b612d0f565b5b92915050565b7f4f776e61626c653a2063616c6c6572206973206e6f7420746865206f776e6572600082015250565b6000612da8602083612c6c565b9150612db382612d72565b602082019050919050565b60006020820190508181036000830152612dd781612d9b565b9050919050565b600081519050612ded81611fa3565b92915050565b600060208284031215612e0957612e08611f31565b5b6000612e1784828501612dde565b91505092915050565b6000606082019050612e356000830186612390565b612e426020830185612390565b612e4f60408301846121c3565b949350505050565b6000604082019050612e6c6000830185612390565b612e7960208301846121c3565b9392505050565b600081519050612e8f81612792565b92915050565b600060208284031215612eab57612eaa611f31565b5b6000612eb984828501612e80565b91505092915050565b7f5361666545524332303a204552433230206f7065726174696f6e20646964206e60008201527f6f74207375636365656400000000000000000000000000000000000000000000602082015250565b6000612f1e602a83612c6c565b9150612f2982612ec2565b604082019050919050565b60006020820190508181036000830152612f4d81612f11565b9050919050565b7f416464726573733a20696e73756666696369656e742062616c616e636520666f60008201527f722063616c6c0000000000000000000000000000000000000000000000000000602082015250565b6000612fb0602683612c6c565b9150612fbb82612f54565b604082019050919050565b60006020820190508181036000830152612fdf81612fa3565b9050919050565b600081519050919050565b600081905092915050565b600061300782612fe6565b6130118185612ff1565b9350613021818560208601612067565b80840191505092915050565b60006130398284612ffc565b915081905092915050565b7f416464726573733a2063616c6c20746f206e6f6e2d636f6e7472616374000000600082015250565b600061307a601d83612c6c565b915061308582613044565b602082019050919050565b600060208201905081810360008301526130a98161306d565b9050919050565b60006130bb8261204b565b6130c58185612c6c565b93506130d5818560208601612067565b6130de81612091565b840191505092915050565b6000602082019050818103600083015261310381846130b0565b90509291505056fea26469706673582212207a3ef79adce803f7f4d6365532fd9aa8041b8472d1c98a13a5adf601c21f6af664736f6c63430008110033",
  "linkReferences": {},
  "deployedLinkReferences": {}
}