{
  "_format": "hh-sol-artifact-1",
  "contractName": "Iofy",
  "sourceName": "contracts/Iofy.sol",
  "abi": [
    {
      "inputs": [
        {
          "internalType": "address",
          "name": "_token",
          "type": "address"
        },
        {
          "internalType": "uint256",
          "name": "fee",
          "type": "uint256"
        }
      ],
      "stateMutability": "nonpayable",
      "type": "constructor"
    },
    {
      "inputs": [],
      "name": "ID_DUPLICATED",
      "type": "error"
    },
    {
      "inputs": [],
      "name": "INACTIVE_DEVICE",
      "type": "error"
    },
    {
      "inputs": [],
      "name": "INSUFFICIENT_BALANCE",
      "type": "error"
    },
    {
      "inputs": [],
      "name": "INSUFFICIENT_CONTRACT_BALANCE",
      "type": "error"
    },
    {
      "inputs": [],
      "name": "UNAUTHORIZED",
      "type": "error"
    },
    {
      "inputs": [],
      "name": "ZERO_ADDRESS",
      "type": "error"
    },
    {
      "inputs": [],
      "name": "ZERO_COST",
      "type": "error"
    },
    {
      "anonymous": false,
      "inputs": [
        {
          "indexed": true,
          "internalType": "address",
          "name": "iotDeviceOwner",
          "type": "address"
        },
        {
          "indexed": true,
          "internalType": "uint256",
          "name": "id",
          "type": "uint256"
        },
        {
          "indexed": false,
          "internalType": "uint256",
          "name": "costPerHour",
          "type": "uint256"
        },
        {
          "indexed": true,
          "internalType": "string",
          "name": "cid",
          "type": "string"
        }
      ],
      "name": "CreateIotDevice",
      "type": "event"
    },
    {
      "anonymous": false,
      "inputs": [
        {
          "indexed": true,
          "internalType": "address",
          "name": "iotDeviceOwner",
          "type": "address"
        },
        {
          "indexed": true,
          "internalType": "uint256",
          "name": "iotDeviceId",
          "type": "uint256"
        },
        {
          "indexed": false,
          "internalType": "uint256",
          "name": "costPerHour",
          "type": "uint256"
        },
        {
          "indexed": false,
          "internalType": "bool",
          "name": "isActive",
          "type": "bool"
        }
      ],
      "name": "ModifyIotDevice",
      "type": "event"
    },
    {
      "anonymous": false,
      "inputs": [
        {
          "indexed": true,
          "internalType": "address",
          "name": "previousOwner",
          "type": "address"
        },
        {
          "indexed": true,
          "internalType": "address",
          "name": "newOwner",
          "type": "address"
        }
      ],
      "name": "OwnershipTransferred",
      "type": "event"
    },
    {
      "anonymous": false,
      "inputs": [
        {
          "indexed": true,
          "internalType": "address",
          "name": "maker",
          "type": "address"
        },
        {
          "indexed": true,
          "internalType": "address",
          "name": "user",
          "type": "address"
        },
        {
          "indexed": true,
          "internalType": "uint256",
          "name": "iotDeviceId",
          "type": "uint256"
        },
        {
          "indexed": false,
          "internalType": "uint256",
          "name": "id",
          "type": "uint256"
        },
        {
          "indexed": false,
          "internalType": "uint256",
          "name": "val",
          "type": "uint256"
        },
        {
          "indexed": false,
          "internalType": "uint256",
          "name": "fee",
          "type": "uint256"
        },
        {
          "indexed": false,
          "internalType": "uint256",
          "name": "start",
          "type": "uint256"
        },
        {
          "indexed": false,
          "internalType": "uint256",
          "name": "end",
          "type": "uint256"
        }
      ],
      "name": "RentIot",
      "type": "event"
    },
    {
      "anonymous": false,
      "inputs": [
        {
          "indexed": true,
          "internalType": "address",
          "name": "admin",
          "type": "address"
        },
        {
          "indexed": false,
          "internalType": "uint256",
          "name": "fee",
          "type": "uint256"
        }
      ],
      "name": "SetFee",
      "type": "event"
    },
    {
      "anonymous": false,
      "inputs": [
        {
          "indexed": true,
          "internalType": "address",
          "name": "admin",
          "type": "address"
        },
        {
          "indexed": true,
          "internalType": "address",
          "name": "recipient",
          "type": "address"
        },
        {
          "indexed": false,
          "internalType": "uint256",
          "name": "fee",
          "type": "uint256"
        }
      ],
      "name": "TakeFee",
      "type": "event"
    },
    {
      "anonymous": false,
      "inputs": [
        {
          "indexed": true,
          "internalType": "address",
          "name": "iotDeviceOwner",
          "type": "address"
        },
        {
          "indexed": true,
          "internalType": "address",
          "name": "recipient",
          "type": "address"
        },
        {
          "indexed": false,
          "internalType": "uint256",
          "name": "amount",
          "type": "uint256"
        }
      ],
      "name": "Withdraw",
      "type": "event"
    },
    {
      "inputs": [],
      "name": "_orderID",
      "outputs": [
        {
          "internalType": "uint256",
          "name": "_value",
          "type": "uint256"
        }
      ],
      "stateMutability": "view",
      "type": "function"
    },
    {
      "inputs": [
        {
          "internalType": "string",
          "name": "cid",
          "type": "string"
        },
        {
          "internalType": "uint256",
          "name": "iotDeviceId",
          "type": "uint256"
        },
        {
          "internalType": "uint256",
          "name": "costPerHour",
          "type": "uint256"
        }
      ],
      "name": "createIoTDevice",
      "outputs": [],
      "stateMutability": "nonpayable",
      "type": "function"
    },
    {
      "inputs": [],
      "name": "getAvailableFees",
      "outputs": [
        {
          "internalType": "uint256",
          "name": "available",
          "type": "uint256"
        }
      ],
      "stateMutability": "view",
      "type": "function"
    },
    {
      "inputs": [],
      "name": "getDeviceIds",
      "outputs": [
        {
          "internalType": "uint256[]",
          "name": "ids",
          "type": "uint256[]"
        }
      ],
      "stateMutability": "view",
      "type": "function"
    },
    {
      "inputs": [],
      "name": "getFee",
      "outputs": [
        {
          "internalType": "uint256",
          "name": "fee",
          "type": "uint256"
        }
      ],
      "stateMutability": "view",
      "type": "function"
    },
    {
      "inputs": [
        {
          "internalType": "uint256",
          "name": "ioTDeviceId",
          "type": "uint256"
        }
      ],
      "name": "getIoTDevice",
      "outputs": [
        {
          "components": [
            {
              "internalType": "uint256",
              "name": "iotDeviceId",
              "type": "uint256"
            },
            {
              "internalType": "uint256",
              "name": "costPerHour",
              "type": "uint256"
            },
            {
              "internalType": "uint256",
              "name": "totalRaised",
              "type": "uint256"
            },
            {
              "internalType": "uint256",
              "name": "txCount",
              "type": "uint256"
            },
            {
              "internalType": "string",
              "name": "cid",
              "type": "string"
            },
            {
              "internalType": "address",
              "name": "owner",
              "type": "address"
            },
            {
              "internalType": "bool",
              "name": "isActive",
              "type": "bool"
            }
          ],
          "internalType": "struct IoTDevice",
          "name": "",
          "type": "tuple"
        }
      ],
      "stateMutability": "view",
      "type": "function"
    },
    {
      "inputs": [
        {
          "internalType": "address",
          "name": "ownerAddr",
          "type": "address"
        }
      ],
      "name": "getIoTOwnerInfo",
      "outputs": [
        {
          "components": [
            {
              "internalType": "uint256",
              "name": "totalRaised",
              "type": "uint256"
            },
            {
              "internalType": "uint256",
              "name": "totalWithdrawal",
              "type": "uint256"
            },
            {
              "internalType": "uint256[]",
              "name": "ioTDeviceIds",
              "type": "uint256[]"
            }
          ],
          "internalType": "struct IoTDeviceOwner",
          "name": "",
          "type": "tuple"
        }
      ],
      "stateMutability": "view",
      "type": "function"
    },
    {
      "inputs": [],
      "name": "getLastestOrderId",
      "outputs": [
        {
          "internalType": "uint256",
          "name": "id",
          "type": "uint256"
        }
      ],
      "stateMutability": "view",
      "type": "function"
    },
    {
      "inputs": [
        {
          "internalType": "uint256",
          "name": "orderId",
          "type": "uint256"
        }
      ],
      "name": "getOrderInfo",
      "outputs": [
        {
          "components": [
            {
              "internalType": "uint256",
              "name": "ioTDeviceId",
              "type": "uint256"
            },
            {
              "internalType": "uint256",
              "name": "amountPaid",
              "type": "uint256"
            },
            {
              "internalType": "uint256",
              "name": "startTimestamp",
              "type": "uint256"
            },
            {
              "internalType": "uint256",
              "name": "endTimestamp",
              "type": "uint256"
            },
            {
              "internalType": "address",
              "name": "user",
              "type": "address"
            }
          ],
          "internalType": "struct Order",
          "name": "",
          "type": "tuple"
        }
      ],
      "stateMutability": "view",
      "type": "function"
    },
    {
      "inputs": [],
      "name": "getTotalRaisedInDeals",
      "outputs": [
        {
          "internalType": "uint256",
          "name": "total",
          "type": "uint256"
        }
      ],
      "stateMutability": "view",
      "type": "function"
    },
    {
      "inputs": [
        {
          "internalType": "address",
          "name": "userAddr",
          "type": "address"
        }
      ],
      "name": "getUserInfo",
      "outputs": [
        {
          "components": [
            {
              "internalType": "uint256",
              "name": "spent",
              "type": "uint256"
            },
            {
              "components": [
                {
                  "internalType": "uint256",
                  "name": "ioTDeviceId",
                  "type": "uint256"
                },
                {
                  "internalType": "uint256",
                  "name": "amountPaid",
                  "type": "uint256"
                },
                {
                  "internalType": "uint256",
                  "name": "startTimestamp",
                  "type": "uint256"
                },
                {
                  "internalType": "uint256",
                  "name": "endTimestamp",
                  "type": "uint256"
                },
                {
                  "internalType": "address",
                  "name": "user",
                  "type": "address"
                }
              ],
              "internalType": "struct Order[]",
              "name": "orders",
              "type": "tuple[]"
            }
          ],
          "internalType": "struct User",
          "name": "",
          "type": "tuple"
        }
      ],
      "stateMutability": "view",
      "type": "function"
    },
    {
      "inputs": [
        {
          "internalType": "uint256",
          "name": "iotDeviceId",
          "type": "uint256"
        },
        {
          "internalType": "uint256",
          "name": "costPerHour",
          "type": "uint256"
        },
        {
          "internalType": "bool",
          "name": "isActive",
          "type": "bool"
        }
      ],
      "name": "modifyIoTDevice",
      "outputs": [],
      "stateMutability": "nonpayable",
      "type": "function"
    },
    {
      "inputs": [],
      "name": "owner",
      "outputs": [
        {
          "internalType": "address",
          "name": "",
          "type": "address"
        }
      ],
      "stateMutability": "view",
      "type": "function"
    },
    {
      "inputs": [],
      "name": "renounceOwnership",
      "outputs": [],
      "stateMutability": "nonpayable",
      "type": "function"
    },
    {
      "inputs": [
        {
          "internalType": "uint256",
          "name": "iotDeviceId",
          "type": "uint256"
        },
        {
          "internalType": "address",
          "name": "user",
          "type": "address"
        },
        {
          "internalType": "uint256",
          "name": "amount",
          "type": "uint256"
        },
        {
          "internalType": "uint256",
          "name": "startsIn",
          "type": "uint256"
        }
      ],
      "name": "rentIoT",
      "outputs": [
        {
          "internalType": "uint256",
          "name": "start",
          "type": "uint256"
        },
        {
          "internalType": "uint256",
          "name": "end",
          "type": "uint256"
        }
      ],
      "stateMutability": "nonpayable",
      "type": "function"
    },
    {
      "inputs": [
        {
          "internalType": "uint256",
          "name": "fee",
          "type": "uint256"
        }
      ],
      "name": "setFee",
      "outputs": [],
      "stateMutability": "nonpayable",
      "type": "function"
    },
    {
      "inputs": [
        {
          "internalType": "address",
          "name": "recipient",
          "type": "address"
        },
        {
          "internalType": "uint256",
          "name": "amount",
          "type": "uint256"
        }
      ],
      "name": "takeFee",
      "outputs": [],
      "stateMutability": "nonpayable",
      "type": "function"
    },
    {
      "inputs": [],
      "name": "token",
      "outputs": [
        {
          "internalType": "contract IERC20",
          "name": "",
          "type": "address"
        }
      ],
      "stateMutability": "view",
      "type": "function"
    },
    {
      "inputs": [
        {
          "internalType": "address",
          "name": "newOwner",
          "type": "address"
        }
      ],
      "name": "transferOwnership",
      "outputs": [],
      "stateMutability": "nonpayable",
      "type": "function"
    },
    {
      "inputs": [
        {
          "internalType": "address",
          "name": "recipient",
          "type": "address"
        },
        {
          "internalType": "uint256",
          "name": "amount",
          "type": "uint256"
        }
      ],
      "name": "withdraw",
      "outputs": [],
      "stateMutability": "nonpayable",
      "type": "function"
    }
  ],
  "bytecode": "0x60806040523480156200001157600080fd5b506040516200357d3803806200357d83398181016040528101906200003791906200027c565b620000576200004b620000b160201b60201c565b620000b960201b60201c565b81600160006101000a81548173ffffffffffffffffffffffffffffffffffffffff021916908373ffffffffffffffffffffffffffffffffffffffff160217905550620000a9816200017d60201b60201c565b5050620002f1565b600033905090565b60008060009054906101000a900473ffffffffffffffffffffffffffffffffffffffff169050816000806101000a81548173ffffffffffffffffffffffffffffffffffffffff021916908373ffffffffffffffffffffffffffffffffffffffff1602179055508173ffffffffffffffffffffffffffffffffffffffff168173ffffffffffffffffffffffffffffffffffffffff167f8be0079c531659141344cd1fd0a4f28419497f9722a3daafe3b4186f6b6457e060405160405180910390a35050565b806003819055503373ffffffffffffffffffffffffffffffffffffffff167f01fe2943baee27f47add82886c2200f910c749c461c9b63c5fe83901a53bdb4982604051620001cc9190620002d4565b60405180910390a250565b600080fd5b600073ffffffffffffffffffffffffffffffffffffffff82169050919050565b60006200020982620001dc565b9050919050565b6200021b81620001fc565b81146200022757600080fd5b50565b6000815190506200023b8162000210565b92915050565b6000819050919050565b620002568162000241565b81146200026257600080fd5b50565b60008151905062000276816200024b565b92915050565b60008060408385031215620002965762000295620001d7565b5b6000620002a6858286016200022a565b9250506020620002b98582860162000265565b9150509250929050565b620002ce8162000241565b82525050565b6000602082019050620002eb6000830184620002c3565b92915050565b61327c80620003016000396000f3fe608060405234801561001057600080fd5b506004361061012c5760003560e01c8063912bab7b116100ad578063efd8c80811610071578063efd8c80814610334578063f2fde38b14610350578063f3fef3a31461036c578063fb5eac0714610388578063fc0c546a146103a65761012c565b8063912bab7b14610269578063b7bd06571461029a578063ced72f87146102b6578063d311636b146102d4578063d7362e58146103045761012c565b80635607541e116100f45780635607541e146101d75780636386c1c7146101f557806369fe0e2d14610225578063715018a6146102415780638da5cb5b1461024b5761012c565b80631d759aae146101315780632215c08b1461014d5780632e6c74b01461017d57806340806f7c1461019b5780635342389e146101b9575b600080fd5b61014b60048036038101906101469190612079565b6103c4565b005b610167600480360381019061016291906120b9565b610491565b604051610174919061224b565b60405180910390f35b6101856105e9565b604051610192919061227c565b60405180910390f35b6101a36105fa565b6040516101b0919061227c565b60405180910390f35b6101c1610604565b6040516101ce919061227c565b60405180910390f35b6101df610610565b6040516101ec9190612346565b60405180910390f35b61020f600480360381019061020a9190612368565b610668565b60405161021c91906124e9565b60405180910390f35b61023f600480360381019061023a91906120b9565b6107a8565b005b6102496107bc565b005b6102536107d0565b604051610260919061251a565b60405180910390f35b610283600480360381019061027e9190612535565b6107f9565b60405161029192919061259c565b60405180910390f35b6102b460048036038101906102af91906126fa565b610d7c565b005b6102be611179565b6040516102cb919061227c565b60405180910390f35b6102ee60048036038101906102e991906120b9565b611183565b6040516102fb91906127d1565b60405180910390f35b61031e60048036038101906103199190612368565b61122e565b60405161032b91906128ab565b60405180910390f35b61034e600480360381019061034991906128f9565b6112f3565b005b61036a60048036038101906103659190612368565b611577565b005b61038660048036038101906103819190612079565b6115fa565b005b6103906117d1565b60405161039d919061227c565b60405180910390f35b6103ae6117db565b6040516103bb91906129ab565b60405180910390f35b6103cc611801565b600060055490508181101561040d576040517f50b1f35600000000000000000000000000000000000000000000000000000000815260040160405180910390fd5b81600560008282540392505081905550610427838361187f565b8273ffffffffffffffffffffffffffffffffffffffff163373ffffffffffffffffffffffffffffffffffffffff167f868a05d99b628397acaa119a0429a5e62b0b288c704f92d4759ea3b51c18982584604051610484919061227c565b60405180910390a3505050565b610499611efc565b600760008381526020019081526020016000206040518060e0016040529081600082015481526020016001820154815260200160028201548152602001600382015481526020016004820180546104ef906129f5565b80601f016020809104026020016040519081016040528092919081815260200182805461051b906129f5565b80156105685780601f1061053d57610100808354040283529160200191610568565b820191906000526020600020905b81548152906001019060200180831161054b57829003601f168201915b505050505081526020016005820160009054906101000a900473ffffffffffffffffffffffffffffffffffffffff1673ffffffffffffffffffffffffffffffffffffffff1673ffffffffffffffffffffffffffffffffffffffff1681526020016005820160149054906101000a900460ff1615151515815250509050919050565b60006105f56002611a11565b905090565b6000600554905090565b60028060000154905081565b6060600680548060200260200160405190810160405280929190818152602001828054801561065e57602002820191906000526020600020905b81548152602001906001019080831161064a575b5050505050905090565b610670611f51565b600a60008373ffffffffffffffffffffffffffffffffffffffff1673ffffffffffffffffffffffffffffffffffffffff1681526020019081526020016000206040518060400160405290816000820154815260200160018201805480602002602001604051908101604052809291908181526020016000905b8282101561079957838290600052602060002090600502016040518060a0016040529081600082015481526020016001820154815260200160028201548152602001600382015481526020016004820160009054906101000a900473ffffffffffffffffffffffffffffffffffffffff1673ffffffffffffffffffffffffffffffffffffffff1673ffffffffffffffffffffffffffffffffffffffff1681525050815260200190600101906106e9565b50505050815250509050919050565b6107b0611801565b6107b981611a1f565b50565b6107c4611801565b6107ce6000611a77565b565b60008060009054906101000a900473ffffffffffffffffffffffffffffffffffffffff16905090565b6000806000600760008881526020019081526020016000206040518060e001604052908160008201548152602001600182015481526020016002820154815260200160038201548152602001600482018054610854906129f5565b80601f0160208091040260200160405190810160405280929190818152602001828054610880906129f5565b80156108cd5780601f106108a2576101008083540402835291602001916108cd565b820191906000526020600020905b8154815290600101906020018083116108b057829003601f168201915b505050505081526020016005820160009054906101000a900473ffffffffffffffffffffffffffffffffffffffff1673ffffffffffffffffffffffffffffffffffffffff1673ffffffffffffffffffffffffffffffffffffffff1681526020016005820160149054906101000a900460ff16151515158152505090508060c00151610984576040517ffb37fda600000000000000000000000000000000000000000000000000000000815260040160405180910390fd5b600085036109be576040517fa2ee6b8200000000000000000000000000000000000000000000000000000000815260040160405180910390fd5b610a0d333087600160009054906101000a900473ffffffffffffffffffffffffffffffffffffffff1673ffffffffffffffffffffffffffffffffffffffff16611b3b909392919063ffffffff16565b60006007600089815260200190815260200160002090506000600960008460a0015173ffffffffffffffffffffffffffffffffffffffff1673ffffffffffffffffffffffffffffffffffffffff16815260200190815260200160002090506000600a60008a73ffffffffffffffffffffffffffffffffffffffff1673ffffffffffffffffffffffffffffffffffffffff168152602001908152602001600020905060008a905060008a9050600060035490508a84600001600082825401925050819055506000612710828d0281610ae757610ae6612a26565b5b0490506000818d03905080600460008282540192505081905550816005600082825401925050819055508087600001600082825401925050819055508088600201600082825401925050819055508760030160008154809291906001019190505550428c019a508a8960200151610e108f0281610b6757610b66612a26565b5b04019950505060008060008b8b8f92509250925060006040518060a001604052808881526020018381526020018581526020018481526020018773ffffffffffffffffffffffffffffffffffffffff168152509050876001018190806001815401808255809150506001900390600052602060002090600502016000909190919091506000820151816000015560208201518160010155604082015181600201556060820151816003015560808201518160040160006101000a81548173ffffffffffffffffffffffffffffffffffffffff021916908373ffffffffffffffffffffffffffffffffffffffff1602179055505050610c656002611bc4565b6000610c716002611a11565b905081600860008381526020019081526020016000206000820151816000015560208201518160010155604082015181600201556060820151816003015560808201518160040160006101000a81548173ffffffffffffffffffffffffffffffffffffffff021916908373ffffffffffffffffffffffffffffffffffffffff160217905550905050878773ffffffffffffffffffffffffffffffffffffffff163373ffffffffffffffffffffffffffffffffffffffff167f4e1cca2dd667ea0fa1397026550a63321384d154753acafe278419fd81c1d3df84878b8b8b604051610d5f959493929190612a55565b60405180910390a450505050505050505050505094509492505050565b6000600760008481526020019081526020016000206040518060e001604052908160008201548152602001600182015481526020016002820154815260200160038201548152602001600482018054610dd4906129f5565b80601f0160208091040260200160405190810160405280929190818152602001828054610e00906129f5565b8015610e4d5780601f10610e2257610100808354040283529160200191610e4d565b820191906000526020600020905b815481529060010190602001808311610e3057829003601f168201915b505050505081526020016005820160009054906101000a900473ffffffffffffffffffffffffffffffffffffffff1673ffffffffffffffffffffffffffffffffffffffff1673ffffffffffffffffffffffffffffffffffffffff1681526020016005820160149054906101000a900460ff16151515158152505090508060a0015173ffffffffffffffffffffffffffffffffffffffff16600073ffffffffffffffffffffffffffffffffffffffff1614610f33576040517f1ef7e02b00000000000000000000000000000000000000000000000000000000815260040160405180910390fd5b60008203610f6d576040517fa2ee6b8200000000000000000000000000000000000000000000000000000000815260040160405180910390fd5b60006040518060e0016040528085815260200184815260200160008152602001600081526020018681526020013373ffffffffffffffffffffffffffffffffffffffff16815260200160011515815250905080600760008681526020019081526020016000206000820151816000015560208201518160010155604082015181600201556060820151816003015560808201518160040190816110109190612c4a565b5060a08201518160050160006101000a81548173ffffffffffffffffffffffffffffffffffffffff021916908373ffffffffffffffffffffffffffffffffffffffff16021790555060c08201518160050160146101000a81548160ff0219169083151502179055509050506006849080600181540180825580915050600190039060005260206000200160009091909190915055600960003373ffffffffffffffffffffffffffffffffffffffff1673ffffffffffffffffffffffffffffffffffffffff1681526020019081526020016000206002018490806001815401808255809150506001900390600052602060002001600090919091909150558460405161111b9190612d58565b6040518091039020843373ffffffffffffffffffffffffffffffffffffffff167f16be31cbfa333417bc5ecccfd1df19e013f14d3f4af33afd7b93de240e961efd8660405161116a919061227c565b60405180910390a45050505050565b6000600354905090565b61118b611f6b565b600860008381526020019081526020016000206040518060a0016040529081600082015481526020016001820154815260200160028201548152602001600382015481526020016004820160009054906101000a900473ffffffffffffffffffffffffffffffffffffffff1673ffffffffffffffffffffffffffffffffffffffff1673ffffffffffffffffffffffffffffffffffffffff16815250509050919050565b611236611fb0565b600960008373ffffffffffffffffffffffffffffffffffffffff1673ffffffffffffffffffffffffffffffffffffffff1681526020019081526020016000206040518060600160405290816000820154815260200160018201548152602001600282018054806020026020016040519081016040528092919081815260200182805480156112e357602002820191906000526020600020905b8154815260200190600101908083116112cf575b5050505050815250509050919050565b6000600760008581526020019081526020016000206040518060e00160405290816000820154815260200160018201548152602001600282015481526020016003820154815260200160048201805461134b906129f5565b80601f0160208091040260200160405190810160405280929190818152602001828054611377906129f5565b80156113c45780601f10611399576101008083540402835291602001916113c4565b820191906000526020600020905b8154815290600101906020018083116113a757829003601f168201915b505050505081526020016005820160009054906101000a900473ffffffffffffffffffffffffffffffffffffffff1673ffffffffffffffffffffffffffffffffffffffff1673ffffffffffffffffffffffffffffffffffffffff1681526020016005820160149054906101000a900460ff16151515158152505090508060a0015173ffffffffffffffffffffffffffffffffffffffff163373ffffffffffffffffffffffffffffffffffffffff16146114a9576040517f075fd2b100000000000000000000000000000000000000000000000000000000815260040160405180910390fd5b600083036114e3576040517fa2ee6b8200000000000000000000000000000000000000000000000000000000815260040160405180910390fd5b6000600760008681526020019081526020016000209050828160050160146101000a81548160ff021916908315150217905550838160010181905550843373ffffffffffffffffffffffffffffffffffffffff167f93a8aa4a2f61a8bad34c7c6732674437214587d7ddf0a3a2eccf5472f3d220e58686604051611568929190612d7e565b60405180910390a35050505050565b61157f611801565b600073ffffffffffffffffffffffffffffffffffffffff168173ffffffffffffffffffffffffffffffffffffffff16036115ee576040517f08c379a00000000000000000000000000000000000000000000000000000000081526004016115e590612e2a565b60405180910390fd5b6115f781611a77565b50565b6000600960003373ffffffffffffffffffffffffffffffffffffffff1673ffffffffffffffffffffffffffffffffffffffff1681526020019081526020016000206040518060600160405290816000820154815260200160018201548152602001600282018054806020026020016040519081016040528092919081815260200182805480156116a957602002820191906000526020600020905b815481526020019060010190808311611695575b50505050508152505090506000600960003373ffffffffffffffffffffffffffffffffffffffff1673ffffffffffffffffffffffffffffffffffffffff168152602001908152602001600020905060008260200151836000015161170d9190612e79565b905083811015611749576040517f50b1f35600000000000000000000000000000000000000000000000000000000815260040160405180910390fd5b838260010160008282540192505081905550611765858561187f565b8473ffffffffffffffffffffffffffffffffffffffff163373ffffffffffffffffffffffffffffffffffffffff167f9b1bfa7fa9ee420a16e124f794c35ac9f90472acc99140eb2f6447c714cad8eb866040516117c2919061227c565b60405180910390a35050505050565b6000600454905090565b600160009054906101000a900473ffffffffffffffffffffffffffffffffffffffff1681565b611809611bda565b73ffffffffffffffffffffffffffffffffffffffff166118276107d0565b73ffffffffffffffffffffffffffffffffffffffff161461187d576040517f08c379a000000000000000000000000000000000000000000000000000000000815260040161187490612ef9565b60405180910390fd5b565b600073ffffffffffffffffffffffffffffffffffffffff168273ffffffffffffffffffffffffffffffffffffffff16036118e5576040517f538ba4f900000000000000000000000000000000000000000000000000000000815260040160405180910390fd5b6000600160009054906101000a900473ffffffffffffffffffffffffffffffffffffffff1673ffffffffffffffffffffffffffffffffffffffff166370a08231306040518263ffffffff1660e01b8152600401611942919061251a565b602060405180830381865afa15801561195f573d6000803e3d6000fd5b505050506040513d601f19601f820116820180604052508101906119839190612f2e565b9050818110156119bf576040517f84a0056000000000000000000000000000000000000000000000000000000000815260040160405180910390fd5b611a0c8383600160009054906101000a900473ffffffffffffffffffffffffffffffffffffffff1673ffffffffffffffffffffffffffffffffffffffff16611be29092919063ffffffff16565b505050565b600081600001549050919050565b806003819055503373ffffffffffffffffffffffffffffffffffffffff167f01fe2943baee27f47add82886c2200f910c749c461c9b63c5fe83901a53bdb4982604051611a6c919061227c565b60405180910390a250565b60008060009054906101000a900473ffffffffffffffffffffffffffffffffffffffff169050816000806101000a81548173ffffffffffffffffffffffffffffffffffffffff021916908373ffffffffffffffffffffffffffffffffffffffff1602179055508173ffffffffffffffffffffffffffffffffffffffff168173ffffffffffffffffffffffffffffffffffffffff167f8be0079c531659141344cd1fd0a4f28419497f9722a3daafe3b4186f6b6457e060405160405180910390a35050565b611bbe846323b872dd60e01b858585604051602401611b5c93929190612f5b565b604051602081830303815290604052907bffffffffffffffffffffffffffffffffffffffffffffffffffffffff19166020820180517bffffffffffffffffffffffffffffffffffffffffffffffffffffffff8381831617835250505050611c68565b50505050565b6001816000016000828254019250508190555050565b600033905090565b611c638363a9059cbb60e01b8484604051602401611c01929190612f92565b604051602081830303815290604052907bffffffffffffffffffffffffffffffffffffffffffffffffffffffff19166020820180517bffffffffffffffffffffffffffffffffffffffffffffffffffffffff8381831617835250505050611c68565b505050565b6000611cca826040518060400160405280602081526020017f5361666545524332303a206c6f772d6c6576656c2063616c6c206661696c65648152508573ffffffffffffffffffffffffffffffffffffffff16611d2f9092919063ffffffff16565b9050600081511115611d2a5780806020019051810190611cea9190612fd0565b611d29576040517f08c379a0000000000000000000000000000000000000000000000000000000008152600401611d209061306f565b60405180910390fd5b5b505050565b6060611d3e8484600085611d47565b90509392505050565b606082471015611d8c576040517f08c379a0000000000000000000000000000000000000000000000000000000008152600401611d8390613101565b60405180910390fd5b6000808673ffffffffffffffffffffffffffffffffffffffff168587604051611db59190613168565b60006040518083038185875af1925050503d8060008114611df2576040519150601f19603f3d011682016040523d82523d6000602084013e611df7565b606091505b5091509150611e0887838387611e14565b92505050949350505050565b60608315611e76576000835103611e6e57611e2e85611e89565b611e6d576040517f08c379a0000000000000000000000000000000000000000000000000000000008152600401611e64906131cb565b60405180910390fd5b5b829050611e81565b611e808383611eac565b5b949350505050565b6000808273ffffffffffffffffffffffffffffffffffffffff163b119050919050565b600082511115611ebf5781518083602001fd5b806040517f08c379a0000000000000000000000000000000000000000000000000000000008152600401611ef39190613224565b60405180910390fd5b6040518060e001604052806000815260200160008152602001600081526020016000815260200160608152602001600073ffffffffffffffffffffffffffffffffffffffff1681526020016000151581525090565b604051806040016040528060008152602001606081525090565b6040518060a0016040528060008152602001600081526020016000815260200160008152602001600073ffffffffffffffffffffffffffffffffffffffff1681525090565b60405180606001604052806000815260200160008152602001606081525090565b6000604051905090565b600080fd5b600080fd5b600073ffffffffffffffffffffffffffffffffffffffff82169050919050565b600061201082611fe5565b9050919050565b61202081612005565b811461202b57600080fd5b50565b60008135905061203d81612017565b92915050565b6000819050919050565b61205681612043565b811461206157600080fd5b50565b6000813590506120738161204d565b92915050565b600080604083850312156120905761208f611fdb565b5b600061209e8582860161202e565b92505060206120af85828601612064565b9150509250929050565b6000602082840312156120cf576120ce611fdb565b5b60006120dd84828501612064565b91505092915050565b6120ef81612043565b82525050565b600081519050919050565b600082825260208201905092915050565b60005b8381101561212f578082015181840152602081019050612114565b60008484015250505050565b6000601f19601f8301169050919050565b6000612157826120f5565b6121618185612100565b9350612171818560208601612111565b61217a8161213b565b840191505092915050565b61218e81612005565b82525050565b60008115159050919050565b6121a981612194565b82525050565b600060e0830160008301516121c760008601826120e6565b5060208301516121da60208601826120e6565b5060408301516121ed60408601826120e6565b50606083015161220060608601826120e6565b5060808301518482036080860152612218828261214c565b91505060a083015161222d60a0860182612185565b5060c083015161224060c08601826121a0565b508091505092915050565b6000602082019050818103600083015261226581846121af565b905092915050565b61227681612043565b82525050565b6000602082019050612291600083018461226d565b92915050565b600081519050919050565b600082825260208201905092915050565b6000819050602082019050919050565b60006122cf83836120e6565b60208301905092915050565b6000602082019050919050565b60006122f382612297565b6122fd81856122a2565b9350612308836122b3565b8060005b8381101561233957815161232088826122c3565b975061232b836122db565b92505060018101905061230c565b5085935050505092915050565b6000602082019050818103600083015261236081846122e8565b905092915050565b60006020828403121561237e5761237d611fdb565b5b600061238c8482850161202e565b91505092915050565b600081519050919050565b600082825260208201905092915050565b6000819050602082019050919050565b60a0820160008201516123d760008501826120e6565b5060208201516123ea60208501826120e6565b5060408201516123fd60408501826120e6565b50606082015161241060608501826120e6565b5060808201516124236080850182612185565b50505050565b600061243583836123c1565b60a08301905092915050565b6000602082019050919050565b600061245982612395565b61246381856123a0565b935061246e836123b1565b8060005b8381101561249f5781516124868882612429565b975061249183612441565b925050600181019050612472565b5085935050505092915050565b60006040830160008301516124c460008601826120e6565b50602083015184820360208601526124dc828261244e565b9150508091505092915050565b6000602082019050818103600083015261250381846124ac565b905092915050565b61251481612005565b82525050565b600060208201905061252f600083018461250b565b92915050565b6000806000806080858703121561254f5761254e611fdb565b5b600061255d87828801612064565b945050602061256e8782880161202e565b935050604061257f87828801612064565b925050606061259087828801612064565b91505092959194509250565b60006040820190506125b1600083018561226d565b6125be602083018461226d565b9392505050565b600080fd5b600080fd5b7f4e487b7100000000000000000000000000000000000000000000000000000000600052604160045260246000fd5b6126078261213b565b810181811067ffffffffffffffff82111715612626576126256125cf565b5b80604052505050565b6000612639611fd1565b905061264582826125fe565b919050565b600067ffffffffffffffff821115612665576126646125cf565b5b61266e8261213b565b9050602081019050919050565b82818337600083830152505050565b600061269d6126988461264a565b61262f565b9050828152602081018484840111156126b9576126b86125ca565b5b6126c484828561267b565b509392505050565b600082601f8301126126e1576126e06125c5565b5b81356126f184826020860161268a565b91505092915050565b60008060006060848603121561271357612712611fdb565b5b600084013567ffffffffffffffff81111561273157612730611fe0565b5b61273d868287016126cc565b935050602061274e86828701612064565b925050604061275f86828701612064565b9150509250925092565b60a08201600082015161277f60008501826120e6565b50602082015161279260208501826120e6565b5060408201516127a560408501826120e6565b5060608201516127b860608501826120e6565b5060808201516127cb6080850182612185565b50505050565b600060a0820190506127e66000830184612769565b92915050565b600082825260208201905092915050565b600061280882612297565b61281281856127ec565b935061281d836122b3565b8060005b8381101561284e57815161283588826122c3565b9750612840836122db565b925050600181019050612821565b5085935050505092915050565b600060608301600083015161287360008601826120e6565b50602083015161288660208601826120e6565b506040830151848203604086015261289e82826127fd565b9150508091505092915050565b600060208201905081810360008301526128c5818461285b565b905092915050565b6128d681612194565b81146128e157600080fd5b50565b6000813590506128f3816128cd565b92915050565b60008060006060848603121561291257612911611fdb565b5b600061292086828701612064565b935050602061293186828701612064565b9250506040612942868287016128e4565b9150509250925092565b6000819050919050565b600061297161296c61296784611fe5565b61294c565b611fe5565b9050919050565b600061298382612956565b9050919050565b600061299582612978565b9050919050565b6129a58161298a565b82525050565b60006020820190506129c0600083018461299c565b92915050565b7f4e487b7100000000000000000000000000000000000000000000000000000000600052602260045260246000fd5b60006002820490506001821680612a0d57607f821691505b602082108103612a2057612a1f6129c6565b5b50919050565b7f4e487b7100000000000000000000000000000000000000000000000000000000600052601260045260246000fd5b600060a082019050612a6a600083018861226d565b612a77602083018761226d565b612a84604083018661226d565b612a91606083018561226d565b612a9e608083018461226d565b9695505050505050565b60008190508160005260206000209050919050565b60006020601f8301049050919050565b600082821b905092915050565b600060088302612b0a7fffffffffffffffffffffffffffffffffffffffffffffffffffffffffffffffff82612acd565b612b148683612acd565b95508019841693508086168417925050509392505050565b6000612b47612b42612b3d84612043565b61294c565b612043565b9050919050565b6000819050919050565b612b6183612b2c565b612b75612b6d82612b4e565b848454612ada565b825550505050565b600090565b612b8a612b7d565b612b95818484612b58565b505050565b5b81811015612bb957612bae600082612b82565b600181019050612b9b565b5050565b601f821115612bfe57612bcf81612aa8565b612bd884612abd565b81016020851015612be7578190505b612bfb612bf385612abd565b830182612b9a565b50505b505050565b600082821c905092915050565b6000612c2160001984600802612c03565b1980831691505092915050565b6000612c3a8383612c10565b9150826002028217905092915050565b612c53826120f5565b67ffffffffffffffff811115612c6c57612c6b6125cf565b5b612c7682546129f5565b612c81828285612bbd565b600060209050601f831160018114612cb45760008415612ca2578287015190505b612cac8582612c2e565b865550612d14565b601f198416612cc286612aa8565b60005b82811015612cea57848901518255600182019150602085019450602081019050612cc5565b86831015612d075784890151612d03601f891682612c10565b8355505b6001600288020188555050505b505050505050565b600081905092915050565b6000612d32826120f5565b612d3c8185612d1c565b9350612d4c818560208601612111565b80840191505092915050565b6000612d648284612d27565b915081905092915050565b612d7881612194565b82525050565b6000604082019050612d93600083018561226d565b612da06020830184612d6f565b9392505050565b600082825260208201905092915050565b7f4f776e61626c653a206e6577206f776e657220697320746865207a65726f206160008201527f6464726573730000000000000000000000000000000000000000000000000000602082015250565b6000612e14602683612da7565b9150612e1f82612db8565b604082019050919050565b60006020820190508181036000830152612e4381612e07565b9050919050565b7f4e487b7100000000000000000000000000000000000000000000000000000000600052601160045260246000fd5b6000612e8482612043565b9150612e8f83612043565b9250828203905081811115612ea757612ea6612e4a565b5b92915050565b7f4f776e61626c653a2063616c6c6572206973206e6f7420746865206f776e6572600082015250565b6000612ee3602083612da7565b9150612eee82612ead565b602082019050919050565b60006020820190508181036000830152612f1281612ed6565b9050919050565b600081519050612f288161204d565b92915050565b600060208284031215612f4457612f43611fdb565b5b6000612f5284828501612f19565b91505092915050565b6000606082019050612f70600083018661250b565b612f7d602083018561250b565b612f8a604083018461226d565b949350505050565b6000604082019050612fa7600083018561250b565b612fb4602083018461226d565b9392505050565b600081519050612fca816128cd565b92915050565b600060208284031215612fe657612fe5611fdb565b5b6000612ff484828501612fbb565b91505092915050565b7f5361666545524332303a204552433230206f7065726174696f6e20646964206e60008201527f6f74207375636365656400000000000000000000000000000000000000000000602082015250565b6000613059602a83612da7565b915061306482612ffd565b604082019050919050565b600060208201905081810360008301526130888161304c565b9050919050565b7f416464726573733a20696e73756666696369656e742062616c616e636520666f60008201527f722063616c6c0000000000000000000000000000000000000000000000000000602082015250565b60006130eb602683612da7565b91506130f68261308f565b604082019050919050565b6000602082019050818103600083015261311a816130de565b9050919050565b600081519050919050565b600081905092915050565b600061314282613121565b61314c818561312c565b935061315c818560208601612111565b80840191505092915050565b60006131748284613137565b915081905092915050565b7f416464726573733a2063616c6c20746f206e6f6e2d636f6e7472616374000000600082015250565b60006131b5601d83612da7565b91506131c08261317f565b602082019050919050565b600060208201905081810360008301526131e4816131a8565b9050919050565b60006131f6826120f5565b6132008185612da7565b9350613210818560208601612111565b6132198161213b565b840191505092915050565b6000602082019050818103600083015261323e81846131eb565b90509291505056fea26469706673582212206e6e5c80054a5c3f2964d29421dee90a8ea53c432c8d21825beaed191fca9e2964736f6c63430008110033",
  "linkReferences": {},
  "deployedLinkReferences": {}
}