{
  "_format": "hh-sol-artifact-1",
  "contractName": "Iofy",
  "sourceName": "contracts/Iofy.sol",
  "abi": [
    {
      "inputs": [
        {
          "internalType": "address",
          "name": "_token",
          "type": "address"
        },
        {
          "internalType": "uint256",
          "name": "fee",
          "type": "uint256"
        }
      ],
      "stateMutability": "nonpayable",
      "type": "constructor"
    },
    {
      "inputs": [],
      "name": "INACTIVE_DEVICE",
      "type": "error"
    },
    {
      "inputs": [],
      "name": "INSUFFICIENT_BALANCE",
      "type": "error"
    },
    {
      "inputs": [],
      "name": "INSUFFICIENT_CONTRACT_BALANCE",
      "type": "error"
    },
    {
      "inputs": [],
      "name": "UNAUTHORIZED",
      "type": "error"
    },
    {
      "inputs": [],
      "name": "ZERO_ADDRESS",
      "type": "error"
    },
    {
      "inputs": [],
      "name": "ZERO_COST",
      "type": "error"
    },
    {
      "anonymous": false,
      "inputs": [
        {
          "indexed": true,
          "internalType": "address",
          "name": "iotDeviceOwner",
          "type": "address"
        },
        {
          "indexed": true,
          "internalType": "uint256",
          "name": "id",
          "type": "uint256"
        },
        {
          "indexed": false,
          "internalType": "uint256",
          "name": "costPerHour",
          "type": "uint256"
        },
        {
          "indexed": true,
          "internalType": "string",
          "name": "cid",
          "type": "string"
        }
      ],
      "name": "CreateIotDevice",
      "type": "event"
    },
    {
      "anonymous": false,
      "inputs": [
        {
          "indexed": true,
          "internalType": "address",
          "name": "iotDeviceOwner",
          "type": "address"
        },
        {
          "indexed": true,
          "internalType": "uint256",
          "name": "iotDeviceId",
          "type": "uint256"
        },
        {
          "indexed": false,
          "internalType": "uint256",
          "name": "costPerHour",
          "type": "uint256"
        },
        {
          "indexed": false,
          "internalType": "bool",
          "name": "isActive",
          "type": "bool"
        }
      ],
      "name": "ModifyIotDevice",
      "type": "event"
    },
    {
      "anonymous": false,
      "inputs": [
        {
          "indexed": true,
          "internalType": "address",
          "name": "previousOwner",
          "type": "address"
        },
        {
          "indexed": true,
          "internalType": "address",
          "name": "newOwner",
          "type": "address"
        }
      ],
      "name": "OwnershipTransferred",
      "type": "event"
    },
    {
      "anonymous": false,
      "inputs": [
        {
          "indexed": true,
          "internalType": "address",
          "name": "maker",
          "type": "address"
        },
        {
          "indexed": true,
          "internalType": "address",
          "name": "user",
          "type": "address"
        },
        {
          "indexed": true,
          "internalType": "uint256",
          "name": "iotDeviceId",
          "type": "uint256"
        },
        {
          "indexed": false,
          "internalType": "uint256",
          "name": "id",
          "type": "uint256"
        },
        {
          "indexed": false,
          "internalType": "uint256",
          "name": "val",
          "type": "uint256"
        },
        {
          "indexed": false,
          "internalType": "uint256",
          "name": "fee",
          "type": "uint256"
        },
        {
          "indexed": false,
          "internalType": "uint256",
          "name": "start",
          "type": "uint256"
        },
        {
          "indexed": false,
          "internalType": "uint256",
          "name": "end",
          "type": "uint256"
        }
      ],
      "name": "RentIot",
      "type": "event"
    },
    {
      "anonymous": false,
      "inputs": [
        {
          "indexed": true,
          "internalType": "address",
          "name": "admin",
          "type": "address"
        },
        {
          "indexed": false,
          "internalType": "uint256",
          "name": "fee",
          "type": "uint256"
        }
      ],
      "name": "SetFee",
      "type": "event"
    },
    {
      "anonymous": false,
      "inputs": [
        {
          "indexed": true,
          "internalType": "address",
          "name": "admin",
          "type": "address"
        },
        {
          "indexed": true,
          "internalType": "address",
          "name": "recipient",
          "type": "address"
        },
        {
          "indexed": false,
          "internalType": "uint256",
          "name": "fee",
          "type": "uint256"
        }
      ],
      "name": "TakeFee",
      "type": "event"
    },
    {
      "anonymous": false,
      "inputs": [
        {
          "indexed": true,
          "internalType": "address",
          "name": "iotDeviceOwner",
          "type": "address"
        },
        {
          "indexed": true,
          "internalType": "address",
          "name": "recipient",
          "type": "address"
        },
        {
          "indexed": false,
          "internalType": "uint256",
          "name": "amount",
          "type": "uint256"
        }
      ],
      "name": "Withdraw",
      "type": "event"
    },
    {
      "inputs": [],
      "name": "_ioTDeviceId",
      "outputs": [
        {
          "internalType": "uint256",
          "name": "_value",
          "type": "uint256"
        }
      ],
      "stateMutability": "view",
      "type": "function"
    },
    {
      "inputs": [],
      "name": "_orderID",
      "outputs": [
        {
          "internalType": "uint256",
          "name": "_value",
          "type": "uint256"
        }
      ],
      "stateMutability": "view",
      "type": "function"
    },
    {
      "inputs": [
        {
          "internalType": "string",
          "name": "cid",
          "type": "string"
        },
        {
          "internalType": "uint256",
          "name": "costPerHour",
          "type": "uint256"
        }
      ],
      "name": "createIoTDevice",
      "outputs": [
        {
          "internalType": "uint256",
          "name": "id",
          "type": "uint256"
        }
      ],
      "stateMutability": "nonpayable",
      "type": "function"
    },
    {
      "inputs": [],
      "name": "getAvailableFees",
      "outputs": [
        {
          "internalType": "uint256",
          "name": "available",
          "type": "uint256"
        }
      ],
      "stateMutability": "view",
      "type": "function"
    },
    {
      "inputs": [],
      "name": "getFee",
      "outputs": [
        {
          "internalType": "uint256",
          "name": "fee",
          "type": "uint256"
        }
      ],
      "stateMutability": "view",
      "type": "function"
    },
    {
      "inputs": [
        {
          "internalType": "uint256",
          "name": "ioTDeviceId",
          "type": "uint256"
        }
      ],
      "name": "getIoTDevice",
      "outputs": [
        {
          "components": [
            {
              "internalType": "uint256",
              "name": "iotDeviceId",
              "type": "uint256"
            },
            {
              "internalType": "uint256",
              "name": "costPerHour",
              "type": "uint256"
            },
            {
              "internalType": "uint256",
              "name": "totalRaised",
              "type": "uint256"
            },
            {
              "internalType": "uint256",
              "name": "txCount",
              "type": "uint256"
            },
            {
              "internalType": "string",
              "name": "cid",
              "type": "string"
            },
            {
              "internalType": "address",
              "name": "owner",
              "type": "address"
            },
            {
              "internalType": "bool",
              "name": "isActive",
              "type": "bool"
            }
          ],
          "internalType": "struct IoTDevice",
          "name": "",
          "type": "tuple"
        }
      ],
      "stateMutability": "view",
      "type": "function"
    },
    {
      "inputs": [
        {
          "internalType": "address",
          "name": "ownerAddr",
          "type": "address"
        }
      ],
      "name": "getIoTOwnerInfo",
      "outputs": [
        {
          "components": [
            {
              "internalType": "uint256",
              "name": "totalRaised",
              "type": "uint256"
            },
            {
              "internalType": "uint256",
              "name": "totalWithdrawal",
              "type": "uint256"
            },
            {
              "internalType": "uint256[]",
              "name": "ioTDeviceIds",
              "type": "uint256[]"
            }
          ],
          "internalType": "struct IoTDeviceOwner",
          "name": "",
          "type": "tuple"
        }
      ],
      "stateMutability": "view",
      "type": "function"
    },
    {
      "inputs": [],
      "name": "getLastestIoTDeviceId",
      "outputs": [
        {
          "internalType": "uint256",
          "name": "id",
          "type": "uint256"
        }
      ],
      "stateMutability": "view",
      "type": "function"
    },
    {
      "inputs": [],
      "name": "getLastestOrderId",
      "outputs": [
        {
          "internalType": "uint256",
          "name": "id",
          "type": "uint256"
        }
      ],
      "stateMutability": "view",
      "type": "function"
    },
    {
      "inputs": [
        {
          "internalType": "uint256",
          "name": "orderId",
          "type": "uint256"
        }
      ],
      "name": "getOrderInfo",
      "outputs": [
        {
          "components": [
            {
              "internalType": "uint256",
              "name": "ioTDeviceId",
              "type": "uint256"
            },
            {
              "internalType": "uint256",
              "name": "amountPaid",
              "type": "uint256"
            },
            {
              "internalType": "uint256",
              "name": "startTimestamp",
              "type": "uint256"
            },
            {
              "internalType": "uint256",
              "name": "endTimestamp",
              "type": "uint256"
            },
            {
              "internalType": "address",
              "name": "user",
              "type": "address"
            }
          ],
          "internalType": "struct Order",
          "name": "",
          "type": "tuple"
        }
      ],
      "stateMutability": "view",
      "type": "function"
    },
    {
      "inputs": [],
      "name": "getTotalRaisedInDeals",
      "outputs": [
        {
          "internalType": "uint256",
          "name": "total",
          "type": "uint256"
        }
      ],
      "stateMutability": "view",
      "type": "function"
    },
    {
      "inputs": [
        {
          "internalType": "address",
          "name": "userAddr",
          "type": "address"
        }
      ],
      "name": "getUserInfo",
      "outputs": [
        {
          "components": [
            {
              "internalType": "uint256",
              "name": "spent",
              "type": "uint256"
            },
            {
              "components": [
                {
                  "internalType": "uint256",
                  "name": "ioTDeviceId",
                  "type": "uint256"
                },
                {
                  "internalType": "uint256",
                  "name": "amountPaid",
                  "type": "uint256"
                },
                {
                  "internalType": "uint256",
                  "name": "startTimestamp",
                  "type": "uint256"
                },
                {
                  "internalType": "uint256",
                  "name": "endTimestamp",
                  "type": "uint256"
                },
                {
                  "internalType": "address",
                  "name": "user",
                  "type": "address"
                }
              ],
              "internalType": "struct Order[]",
              "name": "orders",
              "type": "tuple[]"
            }
          ],
          "internalType": "struct User",
          "name": "",
          "type": "tuple"
        }
      ],
      "stateMutability": "view",
      "type": "function"
    },
    {
      "inputs": [
        {
          "internalType": "uint256",
          "name": "iotDeviceId",
          "type": "uint256"
        },
        {
          "internalType": "uint256",
          "name": "costPerHour",
          "type": "uint256"
        },
        {
          "internalType": "bool",
          "name": "isActive",
          "type": "bool"
        }
      ],
      "name": "modifyIoTDevice",
      "outputs": [],
      "stateMutability": "nonpayable",
      "type": "function"
    },
    {
      "inputs": [],
      "name": "owner",
      "outputs": [
        {
          "internalType": "address",
          "name": "",
          "type": "address"
        }
      ],
      "stateMutability": "view",
      "type": "function"
    },
    {
      "inputs": [],
      "name": "renounceOwnership",
      "outputs": [],
      "stateMutability": "nonpayable",
      "type": "function"
    },
    {
      "inputs": [
        {
          "internalType": "uint256",
          "name": "iotDeviceId",
          "type": "uint256"
        },
        {
          "internalType": "address",
          "name": "user",
          "type": "address"
        },
        {
          "internalType": "uint256",
          "name": "amount",
          "type": "uint256"
        },
        {
          "internalType": "uint256",
          "name": "startsIn",
          "type": "uint256"
        }
      ],
      "name": "rentIoT",
      "outputs": [
        {
          "internalType": "uint256",
          "name": "start",
          "type": "uint256"
        },
        {
          "internalType": "uint256",
          "name": "end",
          "type": "uint256"
        }
      ],
      "stateMutability": "nonpayable",
      "type": "function"
    },
    {
      "inputs": [
        {
          "internalType": "uint256",
          "name": "fee",
          "type": "uint256"
        }
      ],
      "name": "setFee",
      "outputs": [],
      "stateMutability": "nonpayable",
      "type": "function"
    },
    {
      "inputs": [
        {
          "internalType": "address",
          "name": "recipient",
          "type": "address"
        },
        {
          "internalType": "uint256",
          "name": "amount",
          "type": "uint256"
        }
      ],
      "name": "takeFee",
      "outputs": [],
      "stateMutability": "nonpayable",
      "type": "function"
    },
    {
      "inputs": [],
      "name": "token",
      "outputs": [
        {
          "internalType": "contract IERC20",
          "name": "",
          "type": "address"
        }
      ],
      "stateMutability": "view",
      "type": "function"
    },
    {
      "inputs": [
        {
          "internalType": "address",
          "name": "newOwner",
          "type": "address"
        }
      ],
      "name": "transferOwnership",
      "outputs": [],
      "stateMutability": "nonpayable",
      "type": "function"
    },
    {
      "inputs": [
        {
          "internalType": "address",
          "name": "recipient",
          "type": "address"
        },
        {
          "internalType": "uint256",
          "name": "amount",
          "type": "uint256"
        }
      ],
      "name": "withdraw",
      "outputs": [],
      "stateMutability": "nonpayable",
      "type": "function"
    }
  ],
  "bytecode": "0x60806040523480156200001157600080fd5b50604051620033143803806200331483398181016040528101906200003791906200027c565b620000576200004b620000b160201b60201c565b620000b960201b60201c565b81600160006101000a81548173ffffffffffffffffffffffffffffffffffffffff021916908373ffffffffffffffffffffffffffffffffffffffff160217905550620000a9816200017d60201b60201c565b5050620002f1565b600033905090565b60008060009054906101000a900473ffffffffffffffffffffffffffffffffffffffff169050816000806101000a81548173ffffffffffffffffffffffffffffffffffffffff021916908373ffffffffffffffffffffffffffffffffffffffff1602179055508173ffffffffffffffffffffffffffffffffffffffff168173ffffffffffffffffffffffffffffffffffffffff167f8be0079c531659141344cd1fd0a4f28419497f9722a3daafe3b4186f6b6457e060405160405180910390a35050565b806004819055503373ffffffffffffffffffffffffffffffffffffffff167f01fe2943baee27f47add82886c2200f910c749c461c9b63c5fe83901a53bdb4982604051620001cc9190620002d4565b60405180910390a250565b600080fd5b600073ffffffffffffffffffffffffffffffffffffffff82169050919050565b60006200020982620001dc565b9050919050565b6200021b81620001fc565b81146200022757600080fd5b50565b6000815190506200023b8162000210565b92915050565b6000819050919050565b620002568162000241565b81146200026257600080fd5b50565b60008151905062000276816200024b565b92915050565b60008060408385031215620002965762000295620001d7565b5b6000620002a6858286016200022a565b9250506020620002b98582860162000265565b9150509250929050565b620002ce8162000241565b82525050565b6000602082019050620002eb6000830184620002c3565b92915050565b61301380620003016000396000f3fe608060405234801561001057600080fd5b50600436106101375760003560e01c8063715018a6116100b8578063d7362e581161007c578063d7362e5814610341578063efd8c80814610371578063f2fde38b1461038d578063f3fef3a3146103a9578063fb5eac07146103c5578063fc0c546a146103e357610137565b8063715018a61461029a5780638da5cb5b146102a4578063912bab7b146102c2578063ced72f87146102f3578063d311636b1461031157610137565b806340806f7c116100ff57806340806f7c146101f45780634fe68371146102125780635342389e146102305780636386c1c71461024e57806369fe0e2d1461027e57610137565b80630e30bee91461013c5780630fa358dc1461015a5780631d759aae1461018a5780632215c08b146101a65780632e6c74b0146101d6575b600080fd5b610144610401565b6040516101519190611e25565b60405180910390f35b610174600480360381019061016f9190611fc6565b61040d565b6040516101819190611e25565b60405180910390f35b6101a4600480360381019061019f9190612080565b610641565b005b6101c060048036038101906101bb91906120c0565b61070e565b6040516101cd9190612241565b60405180910390f35b6101de610866565b6040516101eb9190611e25565b60405180910390f35b6101fc610877565b6040516102099190611e25565b60405180910390f35b61021a610881565b6040516102279190611e25565b60405180910390f35b610238610892565b6040516102459190611e25565b60405180910390f35b61026860048036038101906102639190612263565b61089e565b60405161027591906123e4565b60405180910390f35b610298600480360381019061029391906120c0565b6109de565b005b6102a26109f2565b005b6102ac610a06565b6040516102b99190612415565b60405180910390f35b6102dc60048036038101906102d79190612430565b610a2f565b6040516102ea929190612497565b60405180910390f35b6102fb610fb2565b6040516103089190611e25565b60405180910390f35b61032b600480360381019061032691906120c0565b610fbc565b6040516103389190612528565b60405180910390f35b61035b60048036038101906103569190612263565b611067565b6040516103689190612642565b60405180910390f35b61038b60048036038101906103869190612690565b61112c565b005b6103a760048036038101906103a29190612263565b6113b2565b005b6103c360048036038101906103be9190612080565b611435565b005b6103cd61160c565b6040516103da9190611e25565b60405180910390f35b6103eb611616565b6040516103f89190612742565b60405180910390f35b60028060000154905081565b6000808203610448576040517fa2ee6b8200000000000000000000000000000000000000000000000000000000815260040160405180910390fd5b610452600261163c565b61045c6002611652565b905060006040518060e0016040528083815260200184815260200160008152602001600081526020018581526020013373ffffffffffffffffffffffffffffffffffffffff1681526020016001151581525090508060076000848152602001908152602001600020600082015181600001556020820151816001015560408201518160020155606082015181600301556080820151816004019081610501919061295f565b5060a08201518160050160006101000a81548173ffffffffffffffffffffffffffffffffffffffff021916908373ffffffffffffffffffffffffffffffffffffffff16021790555060c08201518160050160146101000a81548160ff021916908315150217905550905050600960003373ffffffffffffffffffffffffffffffffffffffff1673ffffffffffffffffffffffffffffffffffffffff168152602001908152602001600020600201829080600181540180825580915050600190039060005260206000200160009091909190915055836040516105e39190612a6d565b6040518091039020823373ffffffffffffffffffffffffffffffffffffffff167f16be31cbfa333417bc5ecccfd1df19e013f14d3f4af33afd7b93de240e961efd866040516106329190611e25565b60405180910390a45092915050565b610649611660565b600060065490508181101561068a576040517f50b1f35600000000000000000000000000000000000000000000000000000000815260040160405180910390fd5b816006600082825403925050819055506106a483836116de565b8273ffffffffffffffffffffffffffffffffffffffff163373ffffffffffffffffffffffffffffffffffffffff167f868a05d99b628397acaa119a0429a5e62b0b288c704f92d4759ea3b51c189825846040516107019190611e25565b60405180910390a3505050565b610716611d37565b600760008381526020019081526020016000206040518060e00160405290816000820154815260200160018201548152602001600282015481526020016003820154815260200160048201805461076c9061278c565b80601f01602080910402602001604051908101604052809291908181526020018280546107989061278c565b80156107e55780601f106107ba576101008083540402835291602001916107e5565b820191906000526020600020905b8154815290600101906020018083116107c857829003601f168201915b505050505081526020016005820160009054906101000a900473ffffffffffffffffffffffffffffffffffffffff1673ffffffffffffffffffffffffffffffffffffffff1673ffffffffffffffffffffffffffffffffffffffff1681526020016005820160149054906101000a900460ff1615151515815250509050919050565b60006108726003611652565b905090565b6000600654905090565b600061088d6002611652565b905090565b60038060000154905081565b6108a6611d8c565b600a60008373ffffffffffffffffffffffffffffffffffffffff1673ffffffffffffffffffffffffffffffffffffffff1681526020019081526020016000206040518060400160405290816000820154815260200160018201805480602002602001604051908101604052809291908181526020016000905b828210156109cf57838290600052602060002090600502016040518060a0016040529081600082015481526020016001820154815260200160028201548152602001600382015481526020016004820160009054906101000a900473ffffffffffffffffffffffffffffffffffffffff1673ffffffffffffffffffffffffffffffffffffffff1673ffffffffffffffffffffffffffffffffffffffff16815250508152602001906001019061091f565b50505050815250509050919050565b6109e6611660565b6109ef81611870565b50565b6109fa611660565b610a0460006118c8565b565b60008060009054906101000a900473ffffffffffffffffffffffffffffffffffffffff16905090565b6000806000600760008881526020019081526020016000206040518060e001604052908160008201548152602001600182015481526020016002820154815260200160038201548152602001600482018054610a8a9061278c565b80601f0160208091040260200160405190810160405280929190818152602001828054610ab69061278c565b8015610b035780601f10610ad857610100808354040283529160200191610b03565b820191906000526020600020905b815481529060010190602001808311610ae657829003601f168201915b505050505081526020016005820160009054906101000a900473ffffffffffffffffffffffffffffffffffffffff1673ffffffffffffffffffffffffffffffffffffffff1673ffffffffffffffffffffffffffffffffffffffff1681526020016005820160149054906101000a900460ff16151515158152505090508060c00151610bba576040517ffb37fda600000000000000000000000000000000000000000000000000000000815260040160405180910390fd5b60008503610bf4576040517fa2ee6b8200000000000000000000000000000000000000000000000000000000815260040160405180910390fd5b610c43333087600160009054906101000a900473ffffffffffffffffffffffffffffffffffffffff1673ffffffffffffffffffffffffffffffffffffffff1661198c909392919063ffffffff16565b60006007600089815260200190815260200160002090506000600960008460a0015173ffffffffffffffffffffffffffffffffffffffff1673ffffffffffffffffffffffffffffffffffffffff16815260200190815260200160002090506000600a60008a73ffffffffffffffffffffffffffffffffffffffff1673ffffffffffffffffffffffffffffffffffffffff168152602001908152602001600020905060008a905060008a9050600060045490508a84600001600082825401925050819055506000612710828d0281610d1d57610d1c612a84565b5b0490506000818d03905080600560008282540192505081905550816006600082825401925050819055508087600001600082825401925050819055508088600201600082825401925050819055508760030160008154809291906001019190505550428c019a508a8960200151610e108f0281610d9d57610d9c612a84565b5b04019950505060008060008b8b8f92509250925060006040518060a001604052808881526020018381526020018581526020018481526020018773ffffffffffffffffffffffffffffffffffffffff168152509050876001018190806001815401808255809150506001900390600052602060002090600502016000909190919091506000820151816000015560208201518160010155604082015181600201556060820151816003015560808201518160040160006101000a81548173ffffffffffffffffffffffffffffffffffffffff021916908373ffffffffffffffffffffffffffffffffffffffff1602179055505050610e9b600361163c565b6000610ea76003611652565b905081600860008381526020019081526020016000206000820151816000015560208201518160010155604082015181600201556060820151816003015560808201518160040160006101000a81548173ffffffffffffffffffffffffffffffffffffffff021916908373ffffffffffffffffffffffffffffffffffffffff160217905550905050878773ffffffffffffffffffffffffffffffffffffffff163373ffffffffffffffffffffffffffffffffffffffff167f4e1cca2dd667ea0fa1397026550a63321384d154753acafe278419fd81c1d3df84878b8b8b604051610f95959493929190612ab3565b60405180910390a450505050505050505050505094509492505050565b6000600454905090565b610fc4611da6565b600860008381526020019081526020016000206040518060a0016040529081600082015481526020016001820154815260200160028201548152602001600382015481526020016004820160009054906101000a900473ffffffffffffffffffffffffffffffffffffffff1673ffffffffffffffffffffffffffffffffffffffff1673ffffffffffffffffffffffffffffffffffffffff16815250509050919050565b61106f611deb565b600960008373ffffffffffffffffffffffffffffffffffffffff1673ffffffffffffffffffffffffffffffffffffffff16815260200190815260200160002060405180606001604052908160008201548152602001600182015481526020016002820180548060200260200160405190810160405280929190818152602001828054801561111c57602002820191906000526020600020905b815481526020019060010190808311611108575b5050505050815250509050919050565b826000600760008381526020019081526020016000206040518060e0016040529081600082015481526020016001820154815260200160028201548152602001600382015481526020016004820180546111859061278c565b80601f01602080910402602001604051908101604052809291908181526020018280546111b19061278c565b80156111fe5780601f106111d3576101008083540402835291602001916111fe565b820191906000526020600020905b8154815290600101906020018083116111e157829003601f168201915b505050505081526020016005820160009054906101000a900473ffffffffffffffffffffffffffffffffffffffff1673ffffffffffffffffffffffffffffffffffffffff1673ffffffffffffffffffffffffffffffffffffffff1681526020016005820160149054906101000a900460ff16151515158152505090508060a0015173ffffffffffffffffffffffffffffffffffffffff163373ffffffffffffffffffffffffffffffffffffffff16146112e3576040517f075fd2b100000000000000000000000000000000000000000000000000000000815260040160405180910390fd5b6000840361131d576040517fa2ee6b8200000000000000000000000000000000000000000000000000000000815260040160405180910390fd5b6000600760008781526020019081526020016000209050838160050160146101000a81548160ff021916908315150217905550848160010181905550853373ffffffffffffffffffffffffffffffffffffffff167f93a8aa4a2f61a8bad34c7c6732674437214587d7ddf0a3a2eccf5472f3d220e587876040516113a2929190612b15565b60405180910390a3505050505050565b6113ba611660565b600073ffffffffffffffffffffffffffffffffffffffff168173ffffffffffffffffffffffffffffffffffffffff1603611429576040517f08c379a000000000000000000000000000000000000000000000000000000000815260040161142090612bc1565b60405180910390fd5b611432816118c8565b50565b6000600960003373ffffffffffffffffffffffffffffffffffffffff1673ffffffffffffffffffffffffffffffffffffffff1681526020019081526020016000206040518060600160405290816000820154815260200160018201548152602001600282018054806020026020016040519081016040528092919081815260200182805480156114e457602002820191906000526020600020905b8154815260200190600101908083116114d0575b50505050508152505090506000600960003373ffffffffffffffffffffffffffffffffffffffff1673ffffffffffffffffffffffffffffffffffffffff16815260200190815260200160002090506000826020015183600001516115489190612c10565b905083811015611584576040517f50b1f35600000000000000000000000000000000000000000000000000000000815260040160405180910390fd5b8382600101600082825401925050819055506115a085856116de565b8473ffffffffffffffffffffffffffffffffffffffff163373ffffffffffffffffffffffffffffffffffffffff167f9b1bfa7fa9ee420a16e124f794c35ac9f90472acc99140eb2f6447c714cad8eb866040516115fd9190611e25565b60405180910390a35050505050565b6000600554905090565b600160009054906101000a900473ffffffffffffffffffffffffffffffffffffffff1681565b6001816000016000828254019250508190555050565b600081600001549050919050565b611668611a15565b73ffffffffffffffffffffffffffffffffffffffff16611686610a06565b73ffffffffffffffffffffffffffffffffffffffff16146116dc576040517f08c379a00000000000000000000000000000000000000000000000000000000081526004016116d390612c90565b60405180910390fd5b565b600073ffffffffffffffffffffffffffffffffffffffff168273ffffffffffffffffffffffffffffffffffffffff1603611744576040517f538ba4f900000000000000000000000000000000000000000000000000000000815260040160405180910390fd5b6000600160009054906101000a900473ffffffffffffffffffffffffffffffffffffffff1673ffffffffffffffffffffffffffffffffffffffff166370a08231306040518263ffffffff1660e01b81526004016117a19190612415565b602060405180830381865afa1580156117be573d6000803e3d6000fd5b505050506040513d601f19601f820116820180604052508101906117e29190612cc5565b90508181101561181e576040517f84a0056000000000000000000000000000000000000000000000000000000000815260040160405180910390fd5b61186b8383600160009054906101000a900473ffffffffffffffffffffffffffffffffffffffff1673ffffffffffffffffffffffffffffffffffffffff16611a1d9092919063ffffffff16565b505050565b806004819055503373ffffffffffffffffffffffffffffffffffffffff167f01fe2943baee27f47add82886c2200f910c749c461c9b63c5fe83901a53bdb49826040516118bd9190611e25565b60405180910390a250565b60008060009054906101000a900473ffffffffffffffffffffffffffffffffffffffff169050816000806101000a81548173ffffffffffffffffffffffffffffffffffffffff021916908373ffffffffffffffffffffffffffffffffffffffff1602179055508173ffffffffffffffffffffffffffffffffffffffff168173ffffffffffffffffffffffffffffffffffffffff167f8be0079c531659141344cd1fd0a4f28419497f9722a3daafe3b4186f6b6457e060405160405180910390a35050565b611a0f846323b872dd60e01b8585856040516024016119ad93929190612cf2565b604051602081830303815290604052907bffffffffffffffffffffffffffffffffffffffffffffffffffffffff19166020820180517bffffffffffffffffffffffffffffffffffffffffffffffffffffffff8381831617835250505050611aa3565b50505050565b600033905090565b611a9e8363a9059cbb60e01b8484604051602401611a3c929190612d29565b604051602081830303815290604052907bffffffffffffffffffffffffffffffffffffffffffffffffffffffff19166020820180517bffffffffffffffffffffffffffffffffffffffffffffffffffffffff8381831617835250505050611aa3565b505050565b6000611b05826040518060400160405280602081526020017f5361666545524332303a206c6f772d6c6576656c2063616c6c206661696c65648152508573ffffffffffffffffffffffffffffffffffffffff16611b6a9092919063ffffffff16565b9050600081511115611b655780806020019051810190611b259190612d67565b611b64576040517f08c379a0000000000000000000000000000000000000000000000000000000008152600401611b5b90612e06565b60405180910390fd5b5b505050565b6060611b798484600085611b82565b90509392505050565b606082471015611bc7576040517f08c379a0000000000000000000000000000000000000000000000000000000008152600401611bbe90612e98565b60405180910390fd5b6000808673ffffffffffffffffffffffffffffffffffffffff168587604051611bf09190612eff565b60006040518083038185875af1925050503d8060008114611c2d576040519150601f19603f3d011682016040523d82523d6000602084013e611c32565b606091505b5091509150611c4387838387611c4f565b92505050949350505050565b60608315611cb1576000835103611ca957611c6985611cc4565b611ca8576040517f08c379a0000000000000000000000000000000000000000000000000000000008152600401611c9f90612f62565b60405180910390fd5b5b829050611cbc565b611cbb8383611ce7565b5b949350505050565b6000808273ffffffffffffffffffffffffffffffffffffffff163b119050919050565b600082511115611cfa5781518083602001fd5b806040517f08c379a0000000000000000000000000000000000000000000000000000000008152600401611d2e9190612fbb565b60405180910390fd5b6040518060e001604052806000815260200160008152602001600081526020016000815260200160608152602001600073ffffffffffffffffffffffffffffffffffffffff1681526020016000151581525090565b604051806040016040528060008152602001606081525090565b6040518060a0016040528060008152602001600081526020016000815260200160008152602001600073ffffffffffffffffffffffffffffffffffffffff1681525090565b60405180606001604052806000815260200160008152602001606081525090565b6000819050919050565b611e1f81611e0c565b82525050565b6000602082019050611e3a6000830184611e16565b92915050565b6000604051905090565b600080fd5b600080fd5b600080fd5b600080fd5b6000601f19601f8301169050919050565b7f4e487b7100000000000000000000000000000000000000000000000000000000600052604160045260246000fd5b611ea782611e5e565b810181811067ffffffffffffffff82111715611ec657611ec5611e6f565b5b80604052505050565b6000611ed9611e40565b9050611ee58282611e9e565b919050565b600067ffffffffffffffff821115611f0557611f04611e6f565b5b611f0e82611e5e565b9050602081019050919050565b82818337600083830152505050565b6000611f3d611f3884611eea565b611ecf565b905082815260208101848484011115611f5957611f58611e59565b5b611f64848285611f1b565b509392505050565b600082601f830112611f8157611f80611e54565b5b8135611f91848260208601611f2a565b91505092915050565b611fa381611e0c565b8114611fae57600080fd5b50565b600081359050611fc081611f9a565b92915050565b60008060408385031215611fdd57611fdc611e4a565b5b600083013567ffffffffffffffff811115611ffb57611ffa611e4f565b5b61200785828601611f6c565b925050602061201885828601611fb1565b9150509250929050565b600073ffffffffffffffffffffffffffffffffffffffff82169050919050565b600061204d82612022565b9050919050565b61205d81612042565b811461206857600080fd5b50565b60008135905061207a81612054565b92915050565b6000806040838503121561209757612096611e4a565b5b60006120a58582860161206b565b92505060206120b685828601611fb1565b9150509250929050565b6000602082840312156120d6576120d5611e4a565b5b60006120e484828501611fb1565b91505092915050565b6120f681611e0c565b82525050565b600081519050919050565b600082825260208201905092915050565b60005b8381101561213657808201518184015260208101905061211b565b60008484015250505050565b600061214d826120fc565b6121578185612107565b9350612167818560208601612118565b61217081611e5e565b840191505092915050565b61218481612042565b82525050565b60008115159050919050565b61219f8161218a565b82525050565b600060e0830160008301516121bd60008601826120ed565b5060208301516121d060208601826120ed565b5060408301516121e360408601826120ed565b5060608301516121f660608601826120ed565b506080830151848203608086015261220e8282612142565b91505060a083015161222360a086018261217b565b5060c083015161223660c0860182612196565b508091505092915050565b6000602082019050818103600083015261225b81846121a5565b905092915050565b60006020828403121561227957612278611e4a565b5b60006122878482850161206b565b91505092915050565b600081519050919050565b600082825260208201905092915050565b6000819050602082019050919050565b60a0820160008201516122d260008501826120ed565b5060208201516122e560208501826120ed565b5060408201516122f860408501826120ed565b50606082015161230b60608501826120ed565b50608082015161231e608085018261217b565b50505050565b600061233083836122bc565b60a08301905092915050565b6000602082019050919050565b600061235482612290565b61235e818561229b565b9350612369836122ac565b8060005b8381101561239a5781516123818882612324565b975061238c8361233c565b92505060018101905061236d565b5085935050505092915050565b60006040830160008301516123bf60008601826120ed565b50602083015184820360208601526123d78282612349565b9150508091505092915050565b600060208201905081810360008301526123fe81846123a7565b905092915050565b61240f81612042565b82525050565b600060208201905061242a6000830184612406565b92915050565b6000806000806080858703121561244a57612449611e4a565b5b600061245887828801611fb1565b94505060206124698782880161206b565b935050604061247a87828801611fb1565b925050606061248b87828801611fb1565b91505092959194509250565b60006040820190506124ac6000830185611e16565b6124b96020830184611e16565b9392505050565b60a0820160008201516124d660008501826120ed565b5060208201516124e960208501826120ed565b5060408201516124fc60408501826120ed565b50606082015161250f60608501826120ed565b506080820151612522608085018261217b565b50505050565b600060a08201905061253d60008301846124c0565b92915050565b600081519050919050565b600082825260208201905092915050565b6000819050602082019050919050565b600061257b83836120ed565b60208301905092915050565b6000602082019050919050565b600061259f82612543565b6125a9818561254e565b93506125b48361255f565b8060005b838110156125e55781516125cc888261256f565b97506125d783612587565b9250506001810190506125b8565b5085935050505092915050565b600060608301600083015161260a60008601826120ed565b50602083015161261d60208601826120ed565b50604083015184820360408601526126358282612594565b9150508091505092915050565b6000602082019050818103600083015261265c81846125f2565b905092915050565b61266d8161218a565b811461267857600080fd5b50565b60008135905061268a81612664565b92915050565b6000806000606084860312156126a9576126a8611e4a565b5b60006126b786828701611fb1565b93505060206126c886828701611fb1565b92505060406126d98682870161267b565b9150509250925092565b6000819050919050565b60006127086127036126fe84612022565b6126e3565b612022565b9050919050565b600061271a826126ed565b9050919050565b600061272c8261270f565b9050919050565b61273c81612721565b82525050565b60006020820190506127576000830184612733565b92915050565b7f4e487b7100000000000000000000000000000000000000000000000000000000600052602260045260246000fd5b600060028204905060018216806127a457607f821691505b6020821081036127b7576127b661275d565b5b50919050565b60008190508160005260206000209050919050565b60006020601f8301049050919050565b600082821b905092915050565b60006008830261281f7fffffffffffffffffffffffffffffffffffffffffffffffffffffffffffffffff826127e2565b61282986836127e2565b95508019841693508086168417925050509392505050565b600061285c61285761285284611e0c565b6126e3565b611e0c565b9050919050565b6000819050919050565b61287683612841565b61288a61288282612863565b8484546127ef565b825550505050565b600090565b61289f612892565b6128aa81848461286d565b505050565b5b818110156128ce576128c3600082612897565b6001810190506128b0565b5050565b601f821115612913576128e4816127bd565b6128ed846127d2565b810160208510156128fc578190505b612910612908856127d2565b8301826128af565b50505b505050565b600082821c905092915050565b600061293660001984600802612918565b1980831691505092915050565b600061294f8383612925565b9150826002028217905092915050565b612968826120fc565b67ffffffffffffffff81111561298157612980611e6f565b5b61298b825461278c565b6129968282856128d2565b600060209050601f8311600181146129c957600084156129b7578287015190505b6129c18582612943565b865550612a29565b601f1984166129d7866127bd565b60005b828110156129ff578489015182556001820191506020850194506020810190506129da565b86831015612a1c5784890151612a18601f891682612925565b8355505b6001600288020188555050505b505050505050565b600081905092915050565b6000612a47826120fc565b612a518185612a31565b9350612a61818560208601612118565b80840191505092915050565b6000612a798284612a3c565b915081905092915050565b7f4e487b7100000000000000000000000000000000000000000000000000000000600052601260045260246000fd5b600060a082019050612ac86000830188611e16565b612ad56020830187611e16565b612ae26040830186611e16565b612aef6060830185611e16565b612afc6080830184611e16565b9695505050505050565b612b0f8161218a565b82525050565b6000604082019050612b2a6000830185611e16565b612b376020830184612b06565b9392505050565b600082825260208201905092915050565b7f4f776e61626c653a206e6577206f776e657220697320746865207a65726f206160008201527f6464726573730000000000000000000000000000000000000000000000000000602082015250565b6000612bab602683612b3e565b9150612bb682612b4f565b604082019050919050565b60006020820190508181036000830152612bda81612b9e565b9050919050565b7f4e487b7100000000000000000000000000000000000000000000000000000000600052601160045260246000fd5b6000612c1b82611e0c565b9150612c2683611e0c565b9250828203905081811115612c3e57612c3d612be1565b5b92915050565b7f4f776e61626c653a2063616c6c6572206973206e6f7420746865206f776e6572600082015250565b6000612c7a602083612b3e565b9150612c8582612c44565b602082019050919050565b60006020820190508181036000830152612ca981612c6d565b9050919050565b600081519050612cbf81611f9a565b92915050565b600060208284031215612cdb57612cda611e4a565b5b6000612ce984828501612cb0565b91505092915050565b6000606082019050612d076000830186612406565b612d146020830185612406565b612d216040830184611e16565b949350505050565b6000604082019050612d3e6000830185612406565b612d4b6020830184611e16565b9392505050565b600081519050612d6181612664565b92915050565b600060208284031215612d7d57612d7c611e4a565b5b6000612d8b84828501612d52565b91505092915050565b7f5361666545524332303a204552433230206f7065726174696f6e20646964206e60008201527f6f74207375636365656400000000000000000000000000000000000000000000602082015250565b6000612df0602a83612b3e565b9150612dfb82612d94565b604082019050919050565b60006020820190508181036000830152612e1f81612de3565b9050919050565b7f416464726573733a20696e73756666696369656e742062616c616e636520666f60008201527f722063616c6c0000000000000000000000000000000000000000000000000000602082015250565b6000612e82602683612b3e565b9150612e8d82612e26565b604082019050919050565b60006020820190508181036000830152612eb181612e75565b9050919050565b600081519050919050565b600081905092915050565b6000612ed982612eb8565b612ee38185612ec3565b9350612ef3818560208601612118565b80840191505092915050565b6000612f0b8284612ece565b915081905092915050565b7f416464726573733a2063616c6c20746f206e6f6e2d636f6e7472616374000000600082015250565b6000612f4c601d83612b3e565b9150612f5782612f16565b602082019050919050565b60006020820190508181036000830152612f7b81612f3f565b9050919050565b6000612f8d826120fc565b612f978185612b3e565b9350612fa7818560208601612118565b612fb081611e5e565b840191505092915050565b60006020820190508181036000830152612fd58184612f82565b90509291505056fea2646970667358221220e349b95f3dd654615f49b139164f03343529ce34dec8c9bb26004ab9df9b664564736f6c63430008110033",
  "linkReferences": {},
  "deployedLinkReferences": {}
}